:040000001DEF05F0FB
:1000080000C01AF001C019F002C018F00BC017F0B8
:100018000CC016F00DC015F0D9CF1FF0DACF20F0C4
:10002800E1CF1DF0E2CF1EF0E9CF1BF0EACF1CF0C4
:100038009EAA06D0AECF77F277C278F2BCEC04F075
:100048001AC000F019C001F018C002F017C00BF078
:1000580016C00CF015C00DF01BC0E9FF1CC0EAFF6C
:100068001DC0E1FF1EC0E2FF1FC0D9FF20C0DAFF9C
:02007800110075
:10007A0075C201F0030E006E015004E000360090D4
:0E008A00FF0FFBD7001E020176510016120078
:1000980002017551010F006E00C001F0010E006EE3
:1000A800015004E000360090FF0FFBD70050761196
:1000B800026E75C201F0010E006E015004E00036B8
:0E00C8000090FF0FFBD7001E02500016120022
:1000D60075C201F0030E006E015004E00036009078
:0C00E600FF0FFBD7020176510012120040
:1000F20002017551010F006E00C001F0010E006E89
:10010200015004E000360090FF0FFBD7001E0050A4
:100112007615026E75C201F0010E006E015004E008
:0E01220000360090FF0FFBD7025000121200B3
:10013000A6A202D00000FCD7A69C7EC2A9FF7FC267
:10014000A8FFA69EA684F2CF00F0F29E550EA76EE1
:10015000AA0EA76EA68200BE02D0F29E01D0F28E39
:04016000A69412004F
:10016400016A02017E51015C1CE28090030E0B6E59
:10017400080E0C6E770E0D6E0D2EFED70C2EFCD7CE
:100184000B2EFAD78080030E0B6E080E0C6E770EC2
:100194000D6E0D2EFED70C2EFCD70B2EFAD7012A8E
:0401A400E0D712008E
:1001A80002017E6B010E7F6FBFDF02017D6B2E0E99
:1001B8007D5D11E27D51010F7E6F220EE96E000E0A
:1001C800EA6E7D51E926D8B0EA2AEECF7FF2ACDF9D
:0E01D80002017D2BECD7040E7E6FC0DF1200FB
:1001E6004C500201745D06E272C275F273C276F279
:1001F60041DF17D04D50745D06E272C275F273C2CC
:1002060076F274DF0ED04E50745D06E272C275F25D
:1002160073C276F23EDF05D072C275F273C276F211
:0402260057DF12008C
:0E022A00ACB202D00000FCD772C2ADFF1200D1
:1002380002017E6B7F6B78DF02017D6B2E0E7D5D88
:1002480008E27D51010F7E6F7F6B6EDF02017D2B0F
:0A025800F5D7020E7E6F82DF120060
:100262004A500201745D06E272C275F273C276F2FE
:1002720003DF0ED04B50745D06E272C275F273C298
:1002820076F236DF05D072C275F273C276F203DF00
:02029200120058
:1002940049500201745D0EE272C201F0010E006E5B
:1002A400015004E000360090FF0FFBD7001E73518D
:1002B40000160CD072C201F0010E006E015004E071
:0E02C40000360090FF0FFBD77351001212009E
:1002D20018D06EC272F26FC273F270C274F2D9DFBA
:1002E2001BD06EC272F26FC273F270C274F2B8DFC8
:1002F20013D06EC272F26FC273F270C274F272DF06
:100302000BD002017151020AE4E07151030AE9E0E3
:0A0312007151040AEEE0006A1200C7
:10031C0002016FB102D0AC9001D0AC8082B405D098
:10032C000D0E0D6E0D2EFED7F9D76EC272F277DF61
:0A033C00AD0E0D6E0D2EFED712005F
:100346005550000A12E17CC256F002017C51010AA6
:1003560002E127DF09D05650020A02E16ADF04D023
:100366005650030AD8B4552A43D05550010A07E11E
:100376005650030A02E17CC253F0552A39D0555033
:10038600020A36E15650030A31E12E0E535C2EE284
:100396005350230A0FE10201100E7C5D0AE2220E81
:1003A600E16E000EE26E5350E126D8B0E22A7CC21E
:1003B600E6FF1CD05350240A0FE10201030E7C5DB8
:1003C6000AE2220EE16E000EE26E5350E126D8B02C
:1003D600E22A7CC2E6FF0AD0220EE16E000EE26E31
:1003E6005350E126D8B0E22A7CC2E6FF010E556ED4
:0203F6001200F3
:1003F800026A7F0E025C0CE2E30EE16E010EE26E11
:100408000250E126D8B0E22AFF0EE66E022AF1D7A2
:10041800026A220E025C16E202C000F0000E016EB3
:10042800220E0024D96E000E0120DA6EE30EE16E72
:10043800010EE26EDE50E126D8B0E22A02C0E6FFE5
:06044800022AE7D71200B2
:10044E00000199B301D019D0030E545C10E2500E86
:10045E00D96E000EDA6E5450D926D8B0DA2A0201BF
:10046E007A51DE1802E000019995542A06D0000157
:0C047E0099A503D07AC27CF25FDF120067
:10048A00020E00018C25016E026A000E0222015042
:10049A008B1916E08C2B9A0EE16E000EE26E8C51CF
:1004AA00E126D8B0E22A7AC2E6FF8C2B9A0EE16ED8
:1004BA00000EE26E8C51E126D8B0E22A7BC2E6FF3A
:0204CA0012001E
:1004CC00650EE96E000EEA6E02016851E926D8B09D
:1004DC00EA2AEECF6DF2100E685D4EE2BD0EE96EAB
:1004EC00010EEA6E6D51E926D8B0EA2AEECF00F083
:1004FC0000C06BF2570EE96E000EEA6E6851E926E9
:10050C00D8B0EA2AEECF6EF200C06FF269C270F278
:10051C00DC0E6825F66E0A0EF76E000EF722000E42
:10052C00F86E000EF8220900F5CF71F2CCDE00C097
:10053C006AF26B510018016E01C06CF20150000A96
:10054C001AE06DC26EF2010E6F6FE2DE6CC26EF2DB
:10055C0002016F6BDDDE6AC26EF202016F6BD8DED8
:10056C00BD0EE16E010EE26E02016D51E126D8B0B6
:10057C00E22A6AC2E6FF0FD0220E685D0CE26DC261
:10058C006EF2010E6F6FC4DE69C26EF202016E373D
:08059C006E916F6BBDDE1200D1
:1005A40002017A51F00A07E1546A556A00019983FD
:1005B4009985566A23D002017A51F70A1DE1000198
:1005C40099A517D0050E0B6E0F0E0C6EF10E0D6E65
:1005D4000D2EFED70C2EFCD70B2EFAD7020E0201DD
:1005E4007E6FBEDD5650030A03E1445201E0DADDBA
:0E05F40001DF0001999302D0000199931200DB
:08060200000199939995120083
:10060A0002017951B00A010ED8A4000E006E4550BD
:10061A00001206E000019987010E01019A6F05D0C8
:0C062A000001999779C27AF2B8DF120043
:10063600000199A720D001019A51010A05E179C26A
:10064600C0F1020E9A6F16D09A51020A13E1E30E18
:10065600E96E010EEA6EC051E926D8B0EA2A220EEA
:10066600EE5C05E2C0C17AF279C27BF20BDF010EC5
:0E06760001019A6F03D079C27AF2E6DE12001B
:10068400A69C65C2A9FFA69EA680A8CF00F0120072
:10069400016A030E015C0BE2BD0EE16E010EE26E17
:1006A4000150E126D8B0E22AE66A012AF2D7120004
:1006B400E30EE96E010EEA6E02016551E926D8B037
:1006C400EA2AEECF01F001C067F2220E015C1FE2BC
:1006D4009B0EE16E010EE26E6751E126D8B0E22A6C
:1006E40066C2E6FF82A411D067C268F266C269F2EC
:1006F400EBDEC10EE16E010EE26E02016751E126EE
:10070400D8B0E22A66C2E6FF02D0010E216E1200C2
:100714002A0E0001876F020E886F720E896F020E17
:100724008A6FFF0E8D6FFF0E8E6F000E8F6F000E9F
:10073400906FFF0E956FFF0E966F000E976F000E71
:10074400986FFF0E916FFF0E926F000E936F000E65
:10075400946FAC8A900EAB6E948E949C9EAA03D038
:08076400AECF00F0FBD712003C
:0A076C00D28AD38CD38AD3881200FE
:0C0776000F015B6B5C6B5D6BC26A1200D4
:10078200B886B06A7F0EAF6EAC84C3DF030E0B6E09
:10079200080E0C6E770E0D6E0D2EFED70C2EFCD7AA
:0807A2000B2EFAD7AC8C1200FB
:0E07AA0001019A6B00019997999126DF1200C8
:1007B8000201626B220E625D14E29B0EE16E010E75
:1007C800E26E6251E126D8B0E22AE66AC10EE16E15
:1007D800010EE26E6251E126D8B0E22AE66A622B87
:0607E800E9D754DF120006
:1007EE00016A02016251015C1CE28090030E0B6EE5
:1007FE00080E0C6E770E0D6E0D2EFED70C2EFCD73E
:10080E000B2EFAD78080030E0B6E080E0C6E770E31
:10081E000D6E0D2EFED70C2EFCD70B2EFAD7012AFD
:04082E00E0D71200FD
:0808320000018B6B8C6B1200BE
:06083A0092908080120084
:08084000F28CF28E9D8A120079
:100848000201626B2E0E625D14E2220E636F000ECF
:10085800646F62516327D8B0642B6251010F656FD2
:100868000DDF63C2E1FF64C2E2FF00C0E6FF622B56
:04087800E9D71200AA
:06087C00AB98AB881200EE
:1008820000018B518C1917E08B2B9A0EE96E000E2A
:10089200EA6E8B51E926D8B0EA2AEECF65F28B2BAD
:1008A2009A0EE96E000EEA6E8B51E926D8B0EA2A5A
:0808B200EECF66F2FEDE12003B
:1008BA000900F5CFE6FF0006FBE10106F9E11200A7
:1008CA0021524EE0216A0201626B220E625D48E209
:1008DA009B0EE96E010EEA6E6251E926D8B0EA2A49
:1008EA00C10ED96E010EDA6E6251D926D8B0DA2A53
:1008FA00EE50DE1833E082A42FD062C268F2C10E35
:10090A00E96E010EEA6E6251E926D8B0EA2AEECF04
:10091A0069F2D7DD62C268F29B0EE96E010EEA6ED9
:10092A0002016251E926D8B0EA2AEECF69F2C9DD9E
:10093A00C10EE16E010EE26E02016251E126D8B0EB
:10094A00E22A9B0EE96E010EEA6E6251E926D8B0E0
:10095A00EA2AEECFE6FF02D0010E216E622BB5D74E
:02096A00120079
:08096C000201656B89DE120037
:040974009484120055
:10097800020178AF06D00001998178C279F241DE90
:1009880006D0000199A103D078C279F250DE120096
:100998000B0E0B6E260E0C6E5D0E0D6E0D2EFED719
:1009A8000C2EFCD70B2EFAD700000000800E020197
:1009B8006E6F010E6F6FAEDC5D0E0D6E0D2EFED7E5
:1009C80002016E6B6F6BA6DC590E0C6E4E0E0D6E2F
:0C09D8000D2EFED70C2EFCD700001200E4
:1009E400026A7F0E025C0CE2E30EE16E010EE26E1F
:1009F4000250E126D8B0E22AFF0EE66E022AF1D7B1
:100A0400026A220E025C16E202C000F0000E016EC1
:100A1400220E0024D96E000E0120DA6EE30EE16E80
:100A2400010EE26EDE50E126D8B0E22A02C0E6FFF3
:060A3400022AE7D71200C0
:100A3A0075EC05F096DE9ADEFBDE030E0201626FAC
:100A4A00D1DEB5DEF1DEACDE97DE8FDF8ADF005263
:100A5A0001E0F5DEC2DF9BDF030E0201626FC2DE38
:0C0A6A0008DFE9DE09DF2CDFFDD7FFD735
:100AEA0010EE21F0660E006E010E016E760EF66EA5
:0E0AFA000A0EF76E000EF86E5DEC04F01200AE
:010A7600007F
:100A7700484952514A4B504F4C4D4E5554537E7F27
:100A87000C0D0E0F101112131415161718191A1B27
:0E0A97001C1D0000000000402A54204060009A
:030AA500002B66BD
:010AA800004D
:010AA900004C
:010AAA00004B
:010AAB00004A
:0E0AAC00000207060406050400020303020010
:100ABA00000001010000010101010102020282811C
:100ACA00101112131415161718191A1B1C1D1E1FA4
:020ADA002021D9
:0E0ADC000303020203040202030202020203E9
:020000040030CA
:0E00000000285F3CFFD381FF0FC00FE00F40D0
:0200000400F00A
:1000000000000000000000000000000000000000F0
:1000100000000000000000000000000000000000E0
:1000200000000000000000000000000000000000D0
:1000300000000000000000000000000000000000C0
:1000400000000000000000000000000000000000B0
:1000500000000000000000000000000000000000A0
:100060000000000000000000000000000000000090
:100070000000000000000000000000000000000080
:100080000000000000000000000000000000000070
:100090000000000000000000000000000000000060
:1000A0000000000000000000000000000000000050
:1000B0000000000000000000000000000000000040
:1000C0000000000000000000000000000000000030
:1000D0000000000000000000000000000000000020
:1000E0000000000000000000000000000000000010
:1000F0000000000000000000000000000000000000
:00000001FF

