:040000009BEF06F07C
:1000080000C01FF001C01EF002C01DF004C01CF0AB
:1000180005C01BF008C01AF009C019F00AC018F092
:100028000BC017F00CC016F00DC015F0E1CF20F092
:10003800E2CF21F09EAA07D0AECFCAF2CAC2CBF255
:1000480082EC05F015D0F2A40DD0F2945750305C34
:1000580004E2302AD76AD66A04D0306A7EEC05F00A
:10006800D59E06D09EA004D09E90CD90010E276EFE
:100078001FC000F01EC001F01DC002F01CC004F03B
:100088001BC005F01AC008F019C009F018C00AF022
:1000980017C00BF016C00CF015C00DF020C0E1FF22
:0600A80021C0E2FF11007F
:0400AE00D59E1200C9
:1000B2000201C851010F006E00C001F0010E006E76
:1000C200015004E000360090FF0FFBD7001E0050E5
:1000D200C915026EC8C201F0010E006E015004E0A3
:0E00E20000360090FF0FFBD7025000121200F4
:0C00F000D5BE03D0D76AD66AD58E1200A8
:1000FC00C8C201F0030E006E015004E000360090FF
:0C010C00FF0FFBD70201C95100121200C6
:100118000201C851010F006E00C001F0010E006E0F
:10012800015004E000360090FF0FFBD70050C911C2
:10013800026EC8C201F0010E006E015004E00036E4
:0E0148000090FF0FFBD7001E025000161200A1
:10015600C8C201F0030E006E015004E000360090A4
:0E016600FF0FFBD7001E0201C9510016120048
:10017400A6A202D00000FCD7A69CC8C2A9FFC9C28F
:10018400A8FFA69EA684F2CF00F0F29E550EA76E9D
:10019400AA0EA76EA68200BE02D0F29E01D0F28EF5
:0401A400A69412000B
:1001A800016A0201C851015C1CE28090030E0B6ECB
:1001B800080E0C6E770E0D6E0D2EFED70C2EFCD78A
:1001C8000B2EFAD78080030E0B6E080E0C6E770E7E
:1001D8000D6E0D2EFED70C2EFCD70B2EFAD7012A4A
:0401E800E0D712004A
:1001EC005B500201C75D06E2C5C2C8F2C6C2C9F2C5
:1001FC00ACDF17D05C50C75D06E2C5C2C8F2C6C200
:10020C00C9F251DF0ED05D50C75D06E2C5C2C8F21F
:10021C00C6C2C9F27BDF05D0C5C2C8F2C6C2C9F2DC
:04022C0067DF120076
:10023000026A220E025C16E202C000F0000E016E9D
:10024000310E0024D96E000E0120DA6E600EE16ED0
:10025000000EE26EDE50E126D8B0E22A02C0E6FFD0
:06026000022AE7D712009C
:1002660058500201C75D0EE2C5C201F0010E006ED4
:10027600015004E000360090FF0FFBD7001EC65168
:1002860000160CD0C5C201F0010E006E015004E04C
:0E02960000360090FF0FFBD7C6510012120079
:1002A40059500201C75D06E2C5C2C8F2C6C2C9F20E
:1002B40050DF0ED05A50C75D06E2C5C2C8F2C6C2AE
:1002C400C9F2F5DE05D0C5C2C8F2C6C2C9F222DF42
:0202D400120016
:0E02D600ACB202D00000FCD7C5C2ADFF1200D2
:1002E4000201C86B010EC96F43DF0201C56B2E0EFC
:1002F400C55D11E2C551010FC86F310EE96E000EE4
:10030400EA6EC551E926D8B0EA2AEECFC9F230DF49
:0E0314000201C52BECD7040EC86F44DF1200A7
:100322000201C86BC96B25DF0201C56B2E0EC55DCC
:1003320008E2C551010FC86FC96B1BDF0201C52B53
:0A034200F5D7020EC86F2FDF12007E
:10034C005550000A03E182B4829430D05550010A12
:10035C0021E1016A82B4012A01500201C51914E09D
:10036C00C551000A0FE1C5B102D0829401D082843C
:10037C00680E0C6EE40E0D6E0D2EFED70C2EFCD7F7
:10038C00000001D0AFDE05D00201C551000A01E129
:10039C0088DE0CD00201016A82B4012A0150C51911
:0E03AC0005E0C5B102D0829401D08284120017
:1003BA0018D0C1C2C5F2C2C2C6F2C3C2C7F24EDF6A
:1003CA001BD0C1C2C5F2C2C2C6F2C3C2C7F265DF40
:1003DA0013D0C1C2C5F2C2C2C6F2C3C2C7F201DF9C
:1003EA000BD00201C451020AE4E0C451030AE9E055
:0A03FA00C451040AEEE0006A12008C
:100404000201C16B7F0EC15D0CE2600EE16E000E55
:10041400E26EC151E126D8B0E22AFF0EE66EC12B8E
:10042400F1D70001E86B060E01018B6F040E020187
:100434009D6F0001E76B040E01018A6F030E020138
:100444009C6F0001E46B020E0101876F030E020131
:10045400996F0001E36B0101866B030E0201986F33
:10046400010E0001E56F070E0101886F020E020103
:100474009A6F010E0001E66F060E0101896F020EEC
:1004840002019B6F010E0001E96F050E01018C6FE3
:10049400020E02019E6F010E0001EA6F040E0101BB
:1004A4008D6F020E02019F6F010E0001ED6F030EAE
:1004B4000101906F020E0201A26F010E0001EC6FA8
:1004C400020E01018F6F020E0201A16F010E0001E5
:1004D400EB6F01018E6B030E0201A06F020E00018F
:1004E400EE6F030E0101916F020E0201A36F020E63
:1004F4000001EF6F020E0101926F020E0201A46F60
:10050400020E0001F06F0101936B030E0201A56F4F
:10051400820E0001F16F810EF26F100EF36F110E57
:10052400F46F120EF56F130EF66F140EF76F150EAF
:10053400F86F160EF96F170EFA6F180EFB6F190E7F
:10054400FC6F1A0EFD6F1B0EFE6F1C0EFF6F1D0E4F
:100554000101006F1E0E016F1F0E026F200E036F4C
:08056400210E046F63DE12009A
:10056C00C3C2C5F2EDDE0201C31D006E00B002D0A5
:10057C00AC9C01D0AC8CC2B102D0AC9001D0AC80A0
:10058C00C1C2C5F2A2DE5550010A04E1010E0201FE
:06059C00C56FD6DE12005F
:1005A2002950000A12E1C1C228F00201C151010A18
:1005B20002E197DE09D02850020A02E1B1DE04D03E
:1005C2002850030AD8B4292A43D02950010A07E146
:1005D2002850030A02E1C1C22FF0292A39D029503A
:1005E200020A36E12850030A31E12E0E2F5C2EE278
:1005F2002F50230A0FE10201100EC15D0AE2310EF3
:10060200E16E000EE26E2F50E126D8B0E22AC1C29E
:10061200E6FF1CD02F50240A0FE10201030EC15D38
:100622000AE2310EE16E000EE26E2F50E126D8B0E2
:10063200E22AC1C2E6FF0AD0310EE16E000EE26E7E
:100642002F50E126D8B0E22AC1C2E6FF010E296E80
:02065200120094
:10065400600ED96E000EDA6E0201BD51D926D8B0F3
:10066400DA2ADECF00F000C05FF0E30EE96E000E80
:10067400EA6E0050E926D8B0EA2AEECF05F112005E
:10068400000E2E5C02E1030E2D5C0DE22A0E2D24D9
:10069400D96E000E2E20DA6E0201BD51DE1802E082
:1006A4000001DF9306D00001DFA303D0BDC2C1F275
:0806B40076DF2D4A2E2A120008
:1006BC000201BD51F00A0AE1010EC86F6FDD2D6A0F
:1006CC002E6A296A0001DF81DF831FD00201BD5130
:1006DC00F70A19E1050E0B6E0F0E0C6EF10E0D6E76
:1006EC000D2EFED70C2EFCD70B2EFAD7020EC86F90
:1006FC0055DD2850030A03E1535201E0EDDD7CDEA9
:0C070C000001DF9102D00001DF9112001B
:10071800100E5F5C4EE2E00EE96E000EEA6E01011B
:100728000551E926D8B0EA2AEECF00F000C0BFF2A2
:10073800860EE96E010EEA6E5F50E926D8B0EA2A05
:10074800EECFC1F200C0C2F2BDC2C3F2980EE96E8C
:10075800020EEA6E5F50E926D8B0EA2AEECFC4F25C
:1007680028DE00C0BEF2BF510018016E01C0C0F201
:100778000150000A1DE005C1C1F2010EC26FC36B32
:10078800F1DEC0C2C1F20201C26BC36BEBDEBEC2B6
:10079800C1F20201C26BC36BE5DEE00EE16E000E32
:1007A800E26E01010551E126D8B0E22ABEC2E6FF99
:1007B80013D0220E5F5C10E205C1C1F2010E0201E6
:1007C800C26FC36BCFDEBDC2C1F20201C137C19196
:0A07D800C26BC36BC7DE00D0120035
:1007E2000134083609360450085E0550D8A0053C8D
:1007F200095E003601360F0E0C6E013408360936DA
:10080200045000A006D0085E0550D8A0053C095E41
:1008120005D008260550D8B0053C09260036013619
:100822000C2EEBD700B006D0045008260550D8B0E5
:08083200053C0926000012003C
:10083A000F0E0201BB15BC6FBC515418010ED8A48F
:10084A00000EBC6F565207E0F00EBB5D04E2BC51CD
:10085A00000A01E10BD05E5208E0BB51F70804E33D
:10086A00BB51F10A01E001D001D003D0020EB86FEA
:10087A0032D0F00EBB15016E01C022F00150B00A51
:10088A0008E1BC5306E0010EB86F010E0101066FC4
:10089A0022D00201B86B5550020A07E082A404D0A4
:1008AA002650010A01E101D012D02250F00A05E0D7
:1008BA000201BC5302E022C0BBF20201BBC2C1F278
:1008CA00C26B010EC36F4DDE010E236E01D0236A87
:0808DA00BBC2BDF2EEDE12000C
:1008E2000201B851020A01E155D0B851010A15E1DD
:1008F20001010651010A07E1BBC2BDF2AADE020EE6
:100902000101066F09D00651020A06E1BBC2BDF21F
:1009120002DF010E0101066F3DD082A40BD02350ED
:10092200010A08E1BBC2C1F20201C26B010EC36F30
:100932001CDE1CD001010651020A18E12250800A75
:1009420009E02250900A05E10201BB51000A01E1CF
:1009520001D00CD0070EE16E010EE26E2550E126A9
:10096200D8B0E22A010EE66E010E246E0001DFA16C
:1009720003D0BBC2BDF285DE01010651010A05E1C9
:10098200BBC225F0020E066F05D00651020A02E133
:06099200010E066F1200C9
:10099800D60E0201AC6F020EAD6FC50EAE6F020E21
:1009A800AF6FFF0EA86FFF0EA96F000EAA6F000EA3
:1009B800AB6FFF0EB06FFF0EB16F000EB26F000E7F
:1009C800B36FFF0EB46FFF0EB56F000EB66F000E5B
:1009D800B76FAC8A900EAB6E948E949C9EAA03D08F
:0809E800AECF00F0FBD71200B6
:0C09F000CD803C0ECF6EB00ECE6E12001B
:1009FC000201BAAF04D0BAC2BBF219DF03D0BAC23B
:060A0C00BBF269DF1200DD
:100A12000450000A08E10550000A05E1FF0E006ECD
:100A22007F0E016E57D00D6A096A086A01500010E4
:100A3200D8B4000C015005180A6E0ABE0D1E0B6ACE
:100A420005AE05D0041E051E042AD8B4052A01AE3F
:100A520005D0001E011E002AD8B4012A015005103B
:100A62000A6E0ABE10D0BCDE0BB020D00DAE000C58
:100A7200001E011E002AD8B4012A081E091E082AD7
:100A8200D8B4092A000C05AE0DD001BE07D0015022
:100A9200096E0050086E016A006AE8D7016A006AAE
:100AA200002A000C011E001E0B2ADDD7082AD8B42A
:100AB200092A0450085CD8A4D9D70550095CD8A4E7
:100AC200D5D7096A086A002AD8B4012A01AECED75E
:060AD2000000FF0C120001
:0C0AD8000F015B6B5C6B5D6BC26A12006F
:0A0AE400D28AD38CD38AD388120083
:080AEE00F28CF28E9D8A1200C9
:060AF600929080801200C6
:080AFC00266A828477DF1200F4
:100B040002019651010F006E016A000E0122000ECF
:100B1400046E010E056E7BDF08C000F009C001F011
:100B240000C0CCF20050020197190CE0CCC296F23E
:100B3400960EE16E010EE26ECC51E126D8B0E22AA7
:060B4400CBC2E6FF120027
:100B4A000900F5CFE6FF0006FBE10106F9E1120014
:080B5A000201976B966B12007B
:100B6200AC8C0201C56BA6EC01F00B0E0B6E260ECF
:100B72000C6E5D0E0D6E0D2EFED70C2EFCD70B2EBD
:100B8200FAD700000000AC80800E0201C56F6BEC4A
:100B920001F05D0E0D6E0D2EFED7AC900201C56BFD
:100BA2006BEC01F0590E0C6E4E0E0D6E0D2EFED733
:100BB2000C2EFCD700005550000A05E0010E020180
:080BC200C56FA6EC01F0120062
:040BCA0094941200ED
:100BCE000201975196191EE09751010F006E016AAE
:100BDE00000E0122000E046E010E056E13DF08C01A
:100BEE0000F009C001F000C0B9F2960EE96E010ED8
:100BFE00EA6E0050E926D8B0EA2AEECFBAF2F7DE56
:060C0E00B9C297F21200CA
:100C14000201B96B276A2450010A3BE1020E0B6EF4
:100C2400860E0C6E990E0D6E0D2EFED70C2EFCD773
:100C34000B2EFAD7246AB96B7F0EB95D2AE2070E30
:100C4400E96E010EEA6EB951E926D8B0EA2AEE50EF
:100C5400010A1CE1070EE16E010EE26EB951E126B4
:100C6400D8B0E22AE66A800EC16FC26B010EC36F70
:100C74007BDCB9C2C1F20201C26B010EC36F74DC2A
:100C84000201C16BC26B010EC36F6EDC0201B92B92
:080C9400D3D7010E266E1200F9
:100C9C000101066B230E5F6E0201B86B016A7F0EB9
:100CAC00015C0BE2070EE16E010EE26E0150E126D3
:100CBC00D8B0E22AE66A012AF2D70001DF91DF936D
:020CCC00120014
:100CCE00016A030E015C0BE2E00EE16E000EE26EB5
:100CDE000150E126D8B0E22AE66A012AF2D71200C4
:100CEE00B886B06A7F0EAF6EAC844FDE030E0B6E0D
:100CFE00080E0C6E770E0D6E0D2EFED70C2EFCD739
:060D0E000B2EFAD71200C3
:100D1400D596D580D582D584D59AD59EF294F28A7B
:100D2400CD9ACD88CD9ECD9CCD90CC9E9E909D801D
:020D34001200AB
:100D3600FEEC06F0D4DECDDEDBDE030E0201C86F6C
:100D4600D4EC00F0D1DEC0DF05DFA5DFCDDFDFDFCD
:100D560039DF02EC02F002DF030E0201C86FD4ECA9
:100D660000F00B0E0B6E260E0C6E5D0E0D6E0D2E2C
:100D7600FED70C2EFCD70B2EFAD700000000010E72
:100D8600C86FD4EC00F00B0E0B6E260E0C6E5D0ECB
:100D96000D6E0D2EFED70C2EFCD70B2EFAD70000AB
:100DA6000000010EC86FD4EC00F02750010A01E1E3
:080DB6002EDF0ADFFAD7FFD798
:100DFC0010EE22F03D0E006E010E016EBE0EF66E70
:0E0E0C000D0EF76E000EF86EA5EC05F012004C
:010DBE000034
:010DBF000033
:010DC0000032
:010DC1000031
:010DC200012F
:010DC300002F
:010DC400002E
:010DC500002D
:030DC600002B6699
:020DC900000028
:010DCB000027
:010DCC000026
:100DCD00484952514A4B504F4C4D4E5554537E7FCE
:100DDD000C0D0E0F101112131415161718191A1BCE
:0E0DED001C1D0000000104402A54204060013B
:020000040030CA
:0E00000000285F3CFFD381FF0FC00FE00F40D0
:0200000400F00A
:1000000000000000000000000000000000000000F0
:1000100000000000000000000000000000000000E0
:1000200000000000000000000000000000000000D0
:1000300000000000000000000000000000000000C0
:1000400000000000000000000000000000000000B0
:1000500000000000000000000000000000000000A0
:100060000000000000000000000000000000000090
:100070000000000000000000000000000000000080
:100080000000000000000000000000000000000070
:100090000000000000000000000000000000000060
:1000A0000000000000000000000000000000000050
:1000B0000000000000000000000000000000000040
:1000C0000000000000000000000000000000000030
:1000D0000000000000000000000000000000000020
:1000E0000000000000000000000000000000000010
:1000F0000000000000000000000000000000000000
:00000001FF

