:0400000089EF05F08F
:1000080000C01AF001C019F002C018F00BC017F0B8
:100018000CC016F00DC015F0D9CF1FF0DACF20F0C4
:10002800E1CF1DF0E2CF1EF0E9CF1BF0EACF1CF0C4
:100038009EAA06D0AECF43F243C244F264EC05F068
:100048001AC000F019C001F018C002F017C00BF078
:1000580016C00CF015C00DF01BC0E9FF1CC0EAFF6C
:100068001DC0E1FF1EC0E2FF1FC0D9FF20C0DAFF9C
:02007800110075
:10007A00A6A202D00000FCD7A69C4AC2A9FF4BC286
:10008A00A8FFA69EA684F2CF00F0F29E550EA76E98
:10009A00AA0EA76EA68200BE02D0F29E01D0F28EF0
:0400AA00A694120006
:1000AE00016A02014A51015C1CE28090030E0B6E44
:1000BE00080E0C6E770E0D6E0D2EFED70C2EFCD785
:1000CE000B2EFAD78080030E0B6E080E0C6E770E79
:1000DE000D6E0D2EFED70C2EFCD70B2EFAD7012A45
:0400EE00E0D7120045
:1000F20041C201F0030E006E015004E00036009090
:0E010200FF0FFBD7001E020142510016120033
:1001100002014151010F006E00C001F0010E006E9E
:10012000015004E000360090FF0FFBD70050421151
:10013000026E41C201F0010E006E015004E0003673
:0E0140000090FF0FFBD7001E025000161200A9
:10014E0002014151010F006E00C001F0010E006E60
:10015E00015004E000360090FF0FFBD7001E005048
:10016E004215026E41C201F0010E006E015004E014
:0E017E0000360090FF0FFBD702500012120057
:10018C0041C201F0030E006E015004E000360090F5
:0C019C00FF0FFBD70201425100121200BD
:1001A80002014A6B010E4B6F64DF0201496B2E0E90
:1001B800495D11E24951010F4A6F210EE96E000EA7
:1001C800EA6E4951E926D8B0EA2AEECF4BF251DF60
:0E01D8000201492BECD7040E4A6F65DF1200BE
:1001E60002014A6B4B6B46DF0201496B2E0E495DDD
:1001F60008E24951010F4A6F4B6B3CDF0201492B64
:0A020600F5D7020E4A6F50DF120018
:100210000134083609360450085E0550D8A0053C64
:10022000095E003601360F0E0C6E013408360936B1
:10023000045000A006D0085E0550D8A0053C095E19
:1002400005D008260550D8B0053C092600360136F1
:100250000C2EEBD700B006D0045008260550D8B0BD
:08026000053C09260000120014
:0E026800ACB202D00000FCD73EC2ADFF1200C7
:1002760049500201405D06E23EC241F23FC242F2EF
:1002860035DF0ED04A50405D06E23EC241F23FC223
:1002960042F25ADF05D03EC241F23FC242F235DF9A
:0202A600120044
:1002A800026A220E025C16E202C000F0000E016E25
:1002B800210E0024D96E000E0120DA6E880EE16E40
:1002C800010EE26EDE50E126D8B0E22A02C0E6FF57
:0602D800022AE7D7120024
:1002DE005650000A12E148C250F002014851010A7C
:1002EE0002E15BDF09D05050020A02E175DF04D053
:1002FE005050030AD8B4562A43D05650010A07E18B
:10030E005050030A02E148C24FF0562A39D05650D7
:10031E00020A36E15050030A31E12E0E4F5C2EE2F6
:10032E004F50230A0FE10201100E485D0AE2210E22
:10033E00E16E000EE26E4F50E126D8B0E22A48C2BE
:10034E00E6FF1CD04F50240A0FE10201030E485D58
:10035E000AE2210EE16E000EE26E4F50E126D8B099
:10036E00E22A48C2E6FF0AD0210EE16E000EE26ECE
:10037E004F50E126D8B0E22A48C2E6FF010E566E73
:02038E0012005B
:100390000450000A08E10550000A05E1FF0E006E56
:1003A0007F0E016E57D00D6A096A086A015000106D
:1003B000D8B4000C015005180A6E0ABE0D1E0B6A57
:1003C00005AE05D0041E051E042AD8B4052A01AEC8
:1003D00005D0001E011E002AD8B4012A01500510C4
:1003E0000A6E0ABE10D014DF0BB020D00DAE000C88
:1003F000001E011E002AD8B4012A081E091E082A60
:10040000D8B4092A000C05AE0DD001BE07D00150AA
:10041000096E0050086E016A006AE8D7016A006A36
:10042000002A000C011E001E0B2ADDD7082AD8B4B2
:10043000092A0450085CD8A4D9D70550095CD8A46F
:10044000D5D7096A086A002AD8B4012A01AECED7E6
:060450000000FF0C120089
:100456004B500201405D06E23EC241F23FC242F20B
:1004660045DE17D04C50405D06E23EC241F23FC227
:1004760042F26ADE0ED04D50405D06E23EC241F2C7
:100486003FC242F242DE05D03EC241F23FC242F2D4
:040496007ADE1200F8
:10049A0048500201405D0EE23EC201F0010E006EBC
:1004AA00015004E000360090FF0FFBD7001E3F51B9
:1004BA0000160CD03EC201F0010E006E015004E09D
:0E04CA0000360090FF0FFBD73F5100121200CA
:1004D80018D03AC23EF23BC23FF23CC240F2D9DFEA
:1004E8001BD03AC23EF23BC23FF23CC240F2BFDEF2
:1004F80013D03AC23EF23BC23FF23CC240F2A7DF01
:100508000BD002013D51020AE4E03D51030AE9E043
:0A0518003D51040AEEE0006A1200F3
:1005220002013BB102D0AC9001D0AC803AC23EF2A3
:040532009ADE12003B
:10053600020E5E24006E016A000E0122000E046E99
:10054600010E056E22DF08C000F009C001F0005060
:10055600591816E0880EE16E000EE26E5E50E12636
:10056600D8B0E22A46C2E6FF5E2A880EE16E000E89
:10057600E26E5E50E126D8B0E22A47C2E6FF5E2A66
:02058600120061
:10058800000E525C02E1030E515C0CE2530E512442
:10059800D96E000E5220DA6E02014651DE18D8A438
:1005A800579405D057A403D046C248F294DE514A66
:0405B800522A1200B1
:1005BC0002014651F00A09E1010E4A6F72DD516ADF
:1005CC00526A566A578257841CD04651F70A18E172
:1005DC00050E0B6E0F0E0C6EF10E0D6E0D2EFED762
:1005EC000C2EFCD70B2EFAD7020E4A6F5ADD505048
:1005FC00030A03E1435201E0D1DD50DE579201D0F2
:04060C0057921200EF
:10061000680E0001616F020E626F3E0E636F020E84
:10062000646FFF0E5A6EFF0E5B6E000E5C6E000E66
:100630005D6EFF0E0201296FFF0E2A6F000E2B6FF9
:10064000000E2C6FFF0E2D6FFF0E2E6F000E2F6F02
:10065000000E306FAC8A900EAB6E948E949C9EAA66
:0A06600003D0AECF00F0FBD712006C
:10066A0002014551B00A010ED8A4000E006E445092
:10067A00001204E05780010E586E04D0579045C20C
:06068A0046F297DF1200AA
:1006900057A01ED05850010A05E145C25FF0020E76
:1006A000586E15D05850020A12E1880EE96E010EFC
:1006B000EA6E5F50E926D8B0EA2A220EEE5C05E227
:1006C0005FC046F245C247F236DF010E586E05D0D4
:0C06D00057A203D045C246F257DF1200CB
:1006DC00880EE96E010EEA6E02013351E926D8B09C
:1006EC00EA2AEECF01F001C038F2070EE96E020ED5
:1006FC00EA6E0150E926D8B0EA2AEECF39F2100E94
:10070C00015C4CE2850EE96E000EEA6E3951E92669
:10071C00D8B0EA2AEECF00F000C036F2650EE96ED2
:10072C00000EEA6E3851E926D8B0EA2AEECF3AF23A
:10073C0000C03BF234C23CF2750EE96E000EEA6E5C
:10074C003851E926D8B0EA2AEECF3DF2BFDE00C020
:10075C0035F236510018016E01C037F20150000A13
:10076C001CE082AA0FD039C23AF2010E3B6FD3DEE5
:10077C0037C23AF202013B6BCEDE35C23AF20201CD
:10078C003B6BC9DE850EE16E000EE26E0201395143
:10079C00E126D8B0E22A35C2E6FF11D0220E385D30
:1007AC000EE282AA0CD039C23AF2010E3B6FB3DED4
:1007BC0034C23AF202013A373A913B6BACDE12008A
:1007CC00A69C33C2A9FFA69EA680A8CF00F012005B
:1007DC00026A220E025C16E202C000F0000E016EEC
:1007EC00210E0024D96E000E0120DA6E880EE16E07
:1007FC00010EE26EDE50E126D8B0E22A02C0E6FF1E
:06080C00022AE7D71200EA
:08081200F28CF28E9D8A1200A7
:10081A00016A00016051015C1CE28090030E0B6EBC
:10082A00080E0C6E770E0D6E0D2EFED70C2EFCD711
:10083A000B2EFAD78080030E0B6E080E0C6E770E05
:10084A000D6E0D2EFED70C2EFCD70B2EFAD7012AD1
:04085A00E0D71200D1
:10085E00016A030E015C0BE2850EE16E000EE26E84
:10086E000150E126D8B0E22AE66A012AF2D7120038
:0A087E00D28AD38CD38AD3881200EB
:100888000900F5CFE6FF0006FBE10106F9E11200D9
:0C0898000F015B6B5C6B5D6BC26A1200B1
:0608A400596A5E6A1200B1
:0608AA0092908080120014
:0A08B000586A5790579257941200AF
:1008BA000001606B7F0E605D0CE2880EE16E010E36
:1008CA00E26E6051E126D8B0E22AFF0EE66E602B96
:1008DA00F1D702010C6B060E00016A6F040E7A6FE3
:1008EA0002010B6B040E0001696F030E796F02019E
:1008FA00086B020E0001666F030E766F0201076B2A
:10090A000001656B030E756F010E0201096F070E78
:10091A000001676F020E776F010E02010A6F060E61
:10092A000001686F020E786F010E02010D6F050E4D
:10093A0000016B6F020E7B6F010E02010E6F040E37
:10094A0000016C6F020E7C6F010E0201116F030E23
:10095A0000016F6F020E7F6F010E0201106F020E0F
:10096A0000016E6F020E7E6F010E02010F6F000111
:10097A006D6B030E7D6F020E0201126F030E0001F2
:10098A00706F020E806F020E0201136F020E0001D9
:10099A00716F020E816F020E0201146F0001726BF9
:1009AA00030E826F820E0201156F810E166F100EF2
:1009BA00176F110E186F120E196F130E1A6F140E8D
:1009CA001B6F150E1C6F160E1D6F170E1E6F180E5D
:1009DA001F6F190E206F1A0E216F1B0E226F1C0E2D
:1009EA00236F1D0E246F1E0E256F1F0E266F200EFD
:0A09FA00276F210E286FEDDE1200BA
:100A04000001606B2E0E605D1AE2210E0201316F4F
:100A1400000E326F0001605102013127D8B0322B31
:100A240000016051010F0201336FCEDE31C2E1FFDC
:100A340032C2E2FF00C0E6FF0001602BE3D71200E0
:100A440059505E1817E0880EE96E000EEA6E595090
:100A5400E926D8B0EA2AEECF33F2592A880EE96E95
:100A6400000EEA6E5950E926D8B0EA2AEECF34F2E5
:060A7400592A32DE1200D7
:100A7A000B0E0B6E260E0C6E5D0E0D6E0D2EFED736
:100A8A000C2EFCD70B2EFAD700000000AC80800E8B
:100A9A0002013E6F34EC01F05D0E0D6E0D2EFED795
:100AAA00AC9002013E6B34EC01F0590E0C6E4E0E06
:0E0ABA000D6E0D2EFED70C2EFCD70000120084
:100AC800020144AF04D044C245F2CBDD03D044C296
:060AD80045F2DADD120018
:100ADE00B886B06A7F0EAF6EAC8493DD030E0B6EDC
:100AEE00080E0C6E770E0D6E0D2EFED70C2EFCD74B
:080AFE000B2EFAD7AC8C12009C
:080B06000201336B60DE1200F6
:040B0E00948A1200B3
:100B1200C0EC05F0B3DEBFDEC7DE030E0001606F7E
:100B22007BDE76DE9BDEBDDEC2DED8DFEFDFEADF14
:100B3200005201E066DFC0DE9FDF030E0001606F3E
:080B42006BDE7FDFFED7FFD759
:100B800010EE21F0360E006E010E016E4A0EF66E6A
:0E0B90000B0EF76E000EF86E44EC04F012002F
:100B4A00484952514A4B504F4C4D4E5554537E7F53
:100B5A000C0D0E0F101112131415161718191A1B53
:0E0B6A001C1D0000000000402A5420406000C6
:010B7800007C
:010B7900007B
:020B7A00000079
:030B7C00002B66E5
:010B7F000075
:020000040030CA
:0E00000000285F3CFFD381FF0FC00FE00F40D0
:0200000400F00A
:1000000000000000000000000000000000000000F0
:1000100000000000000000000000000000000000E0
:1000200000000000000000000000000000000000D0
:1000300000000000000000000000000000000000C0
:1000400000000000000000000000000000000000B0
:1000500000000000000000000000000000000000A0
:100060000000000000000000000000000000000090
:100070000000000000000000000000000000000080
:100080000000000000000000000000000000000070
:100090000000000000000000000000000000000060
:1000A0000000000000000000000000000000000050
:1000B0000000000000000000000000000000000040
:1000C0000000000000000000000000000000000030
:1000D0000000000000000000000000000000000020
:1000E0000000000000000000000000000000000010
:1000F0000000000000000000000000000000000000
:00000001FF

