:04000000D8EF06F03F
:1000080000C01FF001C01EF002C01DF004C01CF0AB
:1000180005C01BF008C01AF009C019F00AC018F092
:100028000BC017F00CC016F00DC015F0E1CF20F092
:10003800E2CF21F09EAA07D0AECFCCF2CCC2CDF24F
:1000480085EC05F015D0F2A40DD0F2945750305C31
:1000580004E2302AD76AD66A04D0306AA9EC05F0DF
:10006800D59E06D09EA004D09E90CD90010E2B6EFA
:100078001FC000F01EC001F01DC002F01CC004F03B
:100088001BC005F01AC008F019C009F018C00AF022
:1000980017C00BF016C00CF015C00DF020C0E1FF22
:0600A80021C0E2FF11007F
:0400AE00D59E1200C9
:1000B2000201CA51010F006E00C001F0010E006E74
:1000C200015004E000360090FF0FFBD7001E0050E5
:1000D200CB15026ECAC201F0010E006E015004E09F
:0E00E20000360090FF0FFBD7025000121200F4
:0C00F000D5BE03D0D76AD66AD58E1200A8
:1000FC00CAC201F0030E006E015004E000360090FD
:0C010C00FF0FFBD70201CB5100121200C4
:100118000201CA51010F006E00C001F0010E006E0D
:10012800015004E000360090FF0FFBD70050CB11C0
:10013800026ECAC201F0010E006E015004E00036E2
:0E0148000090FF0FFBD7001E025000161200A1
:10015600CAC201F0030E006E015004E000360090A2
:0E016600FF0FFBD7001E0201CB510016120046
:10017400A6A202D00000FCD7A69CCAC2A9FFCBC28B
:10018400A8FFA69EA684F2CF00F0F29E550EA76E9D
:10019400AA0EA76EA68200BE02D0F29E01D0F28EF5
:0401A400A69412000B
:1001A800016A0201CA51015C1CE28090030E0B6EC9
:1001B800080E0C6E770E0D6E0D2EFED70C2EFCD78A
:1001C8000B2EFAD78080030E0B6E080E0C6E770E7E
:1001D8000D6E0D2EFED70C2EFCD70B2EFAD7012A4A
:0401E800E0D712004A
:1001EC005B500201C95D06E2C7C2CAF2C8C2CBF2BB
:1001FC00ACDF17D05C50C95D06E2C7C2CAF2C8C2F8
:10020C00CBF251DF0ED05D50C95D06E2C7C2CAF217
:10021C00C8C2CBF27BDF05D0C7C2CAF2C8C2CBF2D0
:04022C0067DF120076
:10023000026A220E025C16E202C000F0000E016E9D
:10024000310E0024D96E000E0120DA6E970EE16E99
:10025000000EE26EDE50E126D8B0E22A02C0E6FFD0
:06026000022AE7D712009C
:1002660058500201C95D0EE2C7C201F0010E006ED0
:10027600015004E000360090FF0FFBD7001EC85166
:1002860000160CD0C7C201F0010E006E015004E04A
:0E02960000360090FF0FFBD7C8510012120077
:1002A40059500201C95D06E2C7C2CAF2C8C2CBF204
:1002B40050DF0ED05A50C95D06E2C7C2CAF2C8C2A6
:1002C400CBF2F5DE05D0C7C2CAF2C8C2CBF222DF38
:0202D400120016
:1002D6000201CA6BCB6B4BDF0201C76B2E0EC75DEB
:1002E60008E2C751010FCA6FCB6B41DF0201C72B72
:0A02F600F5D7020ECA6F55DF1200A3
:100300000201CA6B010ECB6F35DF0201C76B2E0EE7
:10031000C75D11E2C751010FCA6F310EE96E000EC1
:10032000EA6EC751E926D8B0EA2AEECFCBF222DF37
:0E0330000201C72BECD7040ECA6F36DF120095
:0E033E00ACB202D00000FCD7C7C2ADFF120067
:10034C005550000A03E182B4829430D05550010A12
:10035C0021E1016A82B4012A01500201C71914E09B
:10036C00C751000A0FE1C7B102D0829401D0828438
:10037C00680E0C6EE40E0D6E0D2EFED70C2EFCD7F7
:10038C00000001D0AFDE05D00201C751000A01E127
:10039C0088DE0CD00201016A82B4012A0150C7190F
:0E03AC0005E0C7B102D0829401D08284120015
:1003BA000201C36B7F0EC35D0CE2970EE16E000E65
:1003CA00E26EC351E126D8B0E22AFF0EE66EC32BD5
:1003DA00F1D700017A6B060E666F040E01011B6FDE
:1003EA000001796B040E656F030E01011A6F00019B
:1003FA00766B020E626F030E0101176F0001756BB7
:10040A00616B030E0101166F010E0001776F070E73
:10041A00636F020E0101186F010E0001786F060E5C
:10042A00646F020E0101196F010E00017B6F050E48
:10043A00676F020E01011C6F010E00017C6F040E32
:10044A00686F020E01011D6F010E00017F6F030E1E
:10045A006B6F020E0101206F010E00017E6F020E0A
:10046A006A6F020E01011F6F010E00017D6F696B39
:10047A00030E01011E6F020E0001806F030E6C6FE6
:10048A00020E0101216F020E0001816F020E6D6FD3
:10049A00020E0101226F020E0001826F6E6B030EC3
:1004AA000101236F820E0001836F810E846F100E8B
:1004BA00856F110E866F120E876F130E886F140EDA
:1004CA00896F150E8A6F160E8B6F170E8C6F180EAA
:1004DA008D6F190E8E6F1A0E8F6F1B0E906F1C0E7A
:1004EA00916F1D0E926F1E0E936F1F0E946F200E4A
:0A04FA00956F210E966F97DE120039
:1005040018D0C3C2C7F2C4C2C8F2C5C2C9F2A9DEB8
:100514001BD0C3C2C7F2C4C2C8F2C5C2C9F2C0DE8E
:1005240013D0C3C2C7F2C4C2C8F2C5C2C9F25CDEEA
:100534000BD00201C651020AE4E0C651030AE9E005
:0A054400C651040AEEE0006A12003E
:10054E00C5C2C7F2FCDE0201C51D006E00B002D0AE
:10055E00AC9C01D0AC8CC4B102D0AC9001D0AC80BC
:10056E00C3C2C7F2E5DE5550010A04E1010E0201D5
:06057E00C76FE5DE12006C
:100584002250000A12E1C3C225F00201C351010A3C
:1005940002E1B4DE09D02550020A02E19ADE04D059
:1005A4002550030AD8B4222A43D02250010A07E175
:1005B4002550030A02E1C3C22AF0222A39D022506C
:1005C400020A36E12550030A31E12E0E2A5C2EE29E
:1005D4002A50230A0FE10201100EC35D0AE2310E14
:1005E400E16E000EE26E2A50E126D8B0E22AC3C2C0
:1005F400E6FF1CD02A50240A0FE10201030EC35D5A
:100604000AE2310EE16E000EE26E2A50E126D8B005
:10061400E22AC3C2E6FF0AD0310EE16E000EE26E9A
:100624002A50E126D8B0E22AC3C2E6FF010E226EA8
:020634001200B2
:10063600000E245C02E1030E235C0CE2270E232449
:10064600D96E000E2420DA6E0201BF51DE18D8A43E
:100656005F9205D05FA203D0BFC2C3F290DF234AE8
:04066600242A120030
:10066A000201BF51F00A09E1010ECA6F98DD236A3F
:10067A00246A226A5F805F821CD0BF51F70A18E1A0
:10068A00050E0B6E0F0E0C6EF10E0D6E0D2EFED7B3
:10069A000C2EFCD70B2EFAD7020ECA6F80DD25501E
:1006AA00030A03E1535201E026DE82DE5F9001D0A5
:0406BA005F9012003B
:1006BE00100E0201B85D51E2720EE96E000EEA6E86
:1006CE0000017151E926D8B0EA2AEECF00F000C041
:1006DE00C1F2610EE96E000EEA6E0201B851E92612
:1006EE00D8B0EA2AEECFC3F200C0C4F2BFC2C5F240
:1006FE00160EE96E010EEA6EB851E926D8B0EA2A56
:10070E00EECFC6F2F8DE00C0C0F2C1510018016E85
:10071E0001C0C2F20150000A1FE082BA12D071C0AD
:10072E00C3F2010EC46FC56B0BDFC2C2C3F202016E
:10073E00C46BC56B05DFC0C2C3F20201C46BC56BCF
:10074E00FFDE720EE16E000EE26E00017151E126C7
:10075E00D8B0E22AC0C2E6FF15D0220E0201B85D63
:10076E0011E282BA0ED071C0C3F2010EC46FC56B16
:10077E00E7DEBFC2C3F20201C337C391C46BC56BC0
:06078E00DFDE00D01200C6
:10079400970ED96E000EDA6E0201BF51D926D8B079
:1007A400DA2ADECF00F000C0B8F2750EE96E000E52
:1007B400EA6E0050E926D8B0EA2AEECF71F01200B2
:1007C40000016051020A01E152D06051010A14E1B2
:1007D40002012851010A06E1BDC2BFF2D9DF020EAF
:1007E400286F09D02851020A06E1BDC2BFF265DFB5
:1007F400010E0201286F3BD082A40BD02C50010AB9
:1008040008E10201BDC2C3F2C46B010EC56F9DDED7
:100814001BD002012851020A17E12650800A08E081
:100824002650900A04E1BD51000A01E101D00CD028
:10083400290EE16E020EE26E2F50E126D8B0E22AB4
:10084400010EE66E010E2E6E5FA003D0BDC2BFF294
:10085400F0DE02012851010A05E1BDC22FF0020EAB
:10086400286F05D02851020A02E1010E286F1200F8
:100874000F0E0201BD15BE6FBE515418010ED8A44F
:10088400000EBE6F565207E0F00EBD5D04E2BE518D
:10089400000A01E10BD05E5208E0BD51F70804E301
:1008A400BD51F10A01E001D001D004D0020E0001D3
:1008B400606F34D0F00E0201BD15016E01C026F048
:1008C4000150B00A09E1BE5307E0010E0001606F58
:1008D400010E0201286F22D00001606B5550020AFC
:1008E40007E082A404D02D50010A01E101D012D006
:1008F4002650F00A05E00201BE5302E026C0BDF214
:100904000201BDC2C3F2C46B010EC56F1EDE010E2F
:0E0914002C6E01D02C6ABDC2BFF2A5DE12000F
:100922000134083609360450085E0550D8A0053C4B
:10093200095E003601360F0E0C6E01340836093698
:10094200045000A006D0085E0550D8A0053C095E00
:1009520005D008260550D8B0053C092600360136D8
:100962000C2EEBD700B006D0045008260550D8B0A4
:08097200053C092600001200FB
:10097A003E0E0201AC6F030EAD6FC70EAE6F020ED4
:10098A00AF6FFF0EA86FFF0EA96F000EAA6F000EC1
:10099A00AB6FFF0EB06FFF0EB16F000EB26F000E9D
:1009AA00B36FFF0EB46FFF0EB56F000EB66F000E79
:1009BA00B76FAC8A900EAB6E948E949C9EAA03D0AD
:0809CA00AECF00F0FBD71200D4
:0C09D200CD803C0ECF6EB00ECE6E120039
:1009DE00A69CBCC2A9FFA69EA680A8CF00F01200BE
:1009EE000450000A08E10550000A05E1FF0E006EF2
:1009FE007F0E016E57D00D6A096A086A0150001009
:100A0E00D8B4000C015005180A6E0ABE0D1E0B6AF2
:100A1E0005AE05D0041E051E042AD8B4052A01AE63
:100A2E0005D0001E011E002AD8B4012A015005105F
:100A3E000A6E0ABE10D06EDF0BB020D00DAE000CC9
:100A4E00001E011E002AD8B4012A081E091E082AFB
:100A5E00D8B4092A000C05AE0DD001BE07D0015046
:100A6E00096E0050086E016A006AE8D7016A006AD2
:100A7E00002A000C011E001E0B2ADDD7082AD8B44E
:100A8E00092A0450085CD8A4D9D70550095CD8A40B
:100A9E00D5D7096A086A002AD8B4012A01AECED782
:060AAE000000FF0C120025
:100AB4000201BCAF04D0BCC2BDF2DADE03D0BCC2BA
:060AC400BDF27EDE12000F
:0A0ACA00D28AD38CD38AD38812009D
:080AD400F28CF28E9D8A1200E3
:040ADC0093801200F1
:0A0AE0000101266B0201276B1200D2
:100AEA00016A030E015C0BE2720EE16E000EE26E09
:100AFA000150E126D8B0E22AE66A012AF2D71200AA
:100B0A0002012751010F006E016A000E0122000E38
:100B1A00046E010E056E66DF08C000F009C001F020
:100B2A0000C0CEF20050010126190DE0CEC227F214
:100B3A00270EE16E010EE26E0201CE51E126D8B017
:080B4A00E22ACDC2E6FF120011
:080B52002D6A82843DDF1200D0
:0C0B5A000F015B6B5C6B5D6BC26A1200EC
:060B660092908080120055
:100B6C000900F5CFE6FF0006FBE10106F9E11200F2
:100B7C000201B96B2E0EB95D14E2310EBA6F000E84
:100B8C00BB6FB951BA27D8B0BB2BB951010FBC6F91
:100B9C0020DFBAC2E1FFBBC2E2FF00C0E6FFB92B07
:040BAC00E9D7120073
:080BB0000201BC6B14DF12000E
:100BB800AC8C0201C76BA6EC01F00B0E0B6E260E77
:100BC8000C6E5D0E0D6E0D2EFED70C2EFCD70B2E67
:100BD800FAD700000000AC80800E0201C76F9FECBE
:100BE80001F05D0E0D6E0D2EFED7AC900201C76BA5
:100BF8009FEC01F0590E0C6E4E0E0D6E0D2EFED7A9
:100C08000C2EFCD700005550000A05E0010E020129
:080C1800C76FA6EC01F0120009
:100C200001012651020127191FE001012651010F80
:100C3000006E016A000E0122000E046E010E056EA8
:100C4000D6DE08C000F009C001F000C0B9F2270EDE
:100C5000E96E010EEA6E0050E926D8B0EA2AEECF1E
:0A0C6000BCF228DFB9C226F1120031
:100C6A000201B96B2B6A2E50010A3BE1020E0B6E90
:100C7A00860E0C6E990E0D6E0D2EFED70C2EFCD71D
:100C8A000B2EFAD72E6AB96B7F0EB95D2AE2290EAE
:100C9A00E96E020EEA6EB951E926D8B0EA2AEE5098
:100CAA00010A1CE1290EE16E020EE26EB951E1263B
:100CBA00D8B0E22AE66A800EC36FC46B010EC56F14
:100CCA0041DCB9C2C3F20201C46B010EC56F3ADC42
:100CDA000201C36BC46B010EC56F34DC0201B92B70
:080CEA00D3D7010E2D6E12009C
:100CF20081B01CD0150E0B6E4B0E0C6EBE0E0D6E1F
:100D02000D2EFED70C2EFCD70B2EFAD700006BEC63
:100D120001F0150E0B6E4B0E0C6EBE0E0D6E0D2EEF
:0E0D2200FED70C2EFCD70B2EFAD700001200C5
:100D3000D596D580D582D584D59AD59EF294F28A5F
:100D4000CD9ACD88CD9ECD9CCD90CC9E9E909D8001
:020D500012008F
:100D5200B886B06A7F0EAF6EAC840EDE030E0B6EE9
:100D6200080E0C6E770E0D6E0D2EFED70C2EFCD7D4
:060D72000B2EFAD712005F
:100D78000201286B230EB86F0001606B016A7F0EB9
:100D8800015C0BE2290EE16E020EE26E0150E126D3
:100D9800D8B0E22AE66A012AF2D75F905F92120081
:040DA800948A120017
:040DAC009494120009
:100DB0001EEC07F08ADED1DED6DE030E0201CA6F1A
:100DC000D4EC00F087DE91DE89DE8ADED5DFC1DF7C
:100DD000AFDFECDFE9DF8DDFEBDE005201E0CEDEDE
:100DE000DDEC01F0E9DE030E0201CA6FD4EC00F085
:0E0DF0002B50010A01E139DF13DFFAD7FFD7DC
:100E3C0010EE22F03D0E006E010E016EFE0EF66EEF
:0E0E4C000D0EF76E000EF86EB6EC05F01200FB
:010DFE0000F4
:020DFF000000F2
:010E010000F0
:010E020000EF
:030E0300002B665B
:010E060000EB
:010E070000EA
:010E080000E9
:010E090001E7
:010E0A0000E7
:010E0B0000E6
:010E0C0000E5
:100E0D00484952514A4B504F4C4D4E5554537E7F8D
:100E1D000C0D0E0F101112131415161718191A1B8D
:0E0E2D001C1D0000000104402A5420406001FA
:020000040030CA
:0E00000000285F3CFFD381FF0FC00FE00F40D0
:0200000400F00A
:1000000000000000000000000000000000000000F0
:1000100000000000000000000000000000000000E0
:1000200000000000000000000000000000000000D0
:1000300000000000000000000000000000000000C0
:1000400000000000000000000000000000000000B0
:1000500000000000000000000000000000000000A0
:100060000000000000000000000000000000000090
:100070000000000000000000000000000000000080
:100080000000000000000000000000000000000070
:100090000000000000000000000000000000000060
:1000A0000000000000000000000000000000000050
:1000B0000000000000000000000000000000000040
:1000C0000000000000000000000000000000000030
:1000D0000000000000000000000000000000000020
:1000E0000000000000000000000000000000000010
:1000F0000000000000000000000000000000000000
:00000001FF

