:0400000011EF05F007
:1000080000C01AF001C019F002C018F00BC017F0B8
:100018000CC016F00DC015F0D9CF1FF0DACF20F0C4
:10002800E1CF1DF0E2CF1EF0E9CF1BF0EACF1CF0C4
:100038009EAA06D0AECF78F278C279F2C1EC04F06D
:100048001AC000F019C001F018C002F017C00BF078
:1000580016C00CF015C00DF01BC0E9FF1CC0EAFF6C
:100068001DC0E1FF1EC0E2FF1FC0D9FF20C0DAFF9C
:02007800110075
:10007A0076C201F0030E006E015004E000360090D3
:0E008A00FF0FFBD7001E020177510016120077
:1000980002017651010F006E00C001F0010E006EE2
:1000A800015004E000360090FF0FFBD70050771195
:1000B800026E76C201F0010E006E015004E00036B7
:0E00C8000090FF0FFBD7001E02500016120022
:1000D60076C201F0030E006E015004E00036009077
:0C00E600FF0FFBD702017751001212003F
:1000F20002017651010F006E00C001F0010E006E88
:10010200015004E000360090FF0FFBD7001E0050A4
:100112007715026E76C201F0010E006E015004E006
:0E01220000360090FF0FFBD7025000121200B3
:10013000A6A202D00000FCD7A69C7FC2A9FF80C265
:10014000A8FFA69EA684F2CF00F0F29E550EA76EE1
:10015000AA0EA76EA68200BE02D0F29E01D0F28E39
:04016000A69412004F
:10016400016A02017F51015C1CE28090030E0B6E58
:10017400080E0C6E770E0D6E0D2EFED70C2EFCD7CE
:100184000B2EFAD78080030E0B6E080E0C6E770EC2
:100194000D6E0D2EFED70C2EFCD70B2EFAD7012A8E
:0401A400E0D712008E
:1001A80002017F6B010E806FBFDF02017E6B2E0E96
:1001B8007E5D11E27E51010F7F6F430EE96E000EE6
:1001C800EA6E7E51E926D8B0EA2AEECF80F2ACDF9B
:0E01D80002017E2BECD7040E7F6FC0DF1200F9
:1001E60000016D510201755D06E273C276F274C2BA
:1001F60077F240DF1BD000016E510201755D06E209
:1002060073C276F274C277F271DF10D000016F51BB
:100216000201755D06E273C276F274C277F239DFC7
:0E02260005D073C276F274C277F252DF120076
:0E023400ACB202D00000FCD773C2ADFF1200C6
:1002420002017F6B806B73DF02017E6B2E0E7E5D7F
:1002520008E27E51010F7F6F806B69DF02017E2B06
:0A026200F5D7020E7F6F7DDF12005A
:10026C0000016B510201755D06E273C276F274C235
:10027C0077F2FDDE10D000016C510201755D06E2D3
:10028C0073C276F274C277F22EDF05D073C276F2A7
:08029C0074C277F2FBDE1200D0
:1002A40000016A510201755D0EE273C201F0010E94
:1002B400006E015004E000360090FF0FFBD7001ED3
:1002C400745100160CD073C201F0010E006E01507F
:1002D40004E000360090FF0FFBD7745100121200A7
:1002E40018D06FC273F270C274F271C275F2D8DFA3
:1002F4001BD06FC273F270C274F271C275F2B4DFB4
:1003040013D06FC273F270C274F271C275F269DFF6
:100314000BD002017251020AE4E07251030AE9E0CF
:0A0324007251040AEEE0006A1200B4
:10032E00020170B102D0AC9001D0AC806FC273F2FA
:04033E007ADF120050
:1003420000017151000A14E17DC274F002017D5175
:10035200010A02E128DF0BD000017451020A02E116
:100362006FDF05D000017451030AD8B4712B49D054
:1003720000017151010A07E17451030A02E17DC2D1
:1003820079F0712B3ED07151020A3BE17451030A9C
:1003920035E12E0E795D32E27951230A10E1100E19
:1003A20002017D5D0BE2430EE16E000EE26E000182
:1003B2007951E126D8B0E22A7DC2E6FF1FD00001C2
:1003C2007951240A10E1030E02017D5D0BE2430E16
:1003D200E16E000EE26E00017951E126D8B0E22A08
:1003E2007DC2E6FF0BD00001430EE16E000EE26E0D
:1003F2007951E126D8B0E22A7DC2E6FF0001010E62
:04040200716F120004
:10040600026A7F0E025C0CE2C10EE16E010EE26E24
:100416000250E126D8B0E22AFF0EE66E022AF1D794
:10042600026A220E025C16E202C000F0000E016EA5
:10043600430E0024D96E000E0120DA6EC10EE16E65
:10044600010EE26EDE50E126D8B0E22A02C0E6FFD7
:06045600022AE7D71200A4
:10045C0000019CB501D01CD0000E735D02E1030EAF
:10046C00725D0DE2760E7225D96E000E7321DA6E76
:10047C0002017B51DE1802E000019C9106D00001C4
:10048C009CA103D07BC27DF256DF0001724B732B13
:02049C0012004C
:10049E00020E00019E25016E026A000E022201501C
:1004AE009B1916E09E2B9F0EE16E000EE26E9E5182
:1004BE00E126D8B0E22A7BC2E6FF9E2B9F0EE16EAC
:1004CE00000EE26E9E51E126D8B0E22A7CC2E6FF13
:0204DE0012000A
:1004E000210EE96E000EEA6E02016951E926D8B0CC
:1004F000EA2AEECF6EF2100E695D4EE2980EE96EBA
:10050000000EEA6E6E51E926D8B0EA2AEECF00F06E
:1005100000C06CF27A0EE96E000EEA6E6951E926AF
:10052000D8B0EA2AEECF6FF200C070F26AC271F260
:10053000C50E6925F66E0A0EF76E000EF722000E44
:10054000F86E000EF8220900F5CF72F2CBDE00C083
:100550006BF26C510018016E01C06DF20150000A7F
:100560001AE06EC26FF2010E706FE1DE6DC26FF2C3
:100570000201706BDCDE6BC26FF20201706BD7DEC2
:10058000980EE16E000EE26E02016E51E126D8B0C7
:10059000E22A6BC2E6FF0FD0220E695D0CE26EC24A
:1005A0006FF2010E706FC3DE6AC26FF202016F3725
:0805B0006F91706BBCDE1200BC
:1005B80002017B51F00A07E10001726B736B716BEA
:1005C8009C859C8120D002017B51F70A1AE1050E17
:1005D8000B6E0F0E0C6EF10E0D6E0D2EFED70C2E3F
:1005E800FCD70B2EFAD7020E7F6FB8DD00017451CD
:1005F800030A03E1655301E0D3DD01DF00019C95A7
:0806080002D000019C951200D4
:0806100000019C959C91120071
:1006180002017A51B00A010ED8A4000E006E000142
:100628006651001204E09C83010E9D6F04D09C93D8
:080638007AC27BF2BDDF120063
:1006400000019CA320D09D51010A05E17AC240F22D
:10065000020E9D6F17D09D51020A14E1C10EE96E82
:10066000010EEA6E02014051E926D8B0EA2A220EB4
:10067000EE5C05E240C27BF27AC27CF210DF000140
:0E068000010E9D6F03D07AC27BF2E8DE1200FD
:10068E00016A030E015C0BE2980EE16E000EE26E43
:10069E000150E126D8B0E22AE66A012AF2D712000A
:1006AE00A69C66C2A9FFA69EA680A8CF00F0120047
:1006BE00340E0001906F020E916F730E926F020E48
:1006CE00936FFF0E8C6FFF0E8D6F000E8E6F000EF0
:1006DE008F6FFF0E886FFF0E896F000E8A6F000EF0
:1006EE008B6FFF0E946FFF0E956F000E966F000EC0
:1006FE00976FAC8A900EAB6E948E949C9EAA03D08C
:08070E00AECF00F0FBD7120092
:10071600C10EE96E010EEA6E02016651E926D8B0F5
:10072600EA2AEECF01F001C068F2220E015C1AE25D
:10073600410EE16E020EE26E6851E126D8B0E22A61
:1007460067C2E6FF68C269F267C26AF2C6DE9F0E3A
:10075600E16E010EE26E02016851E126D8B0E22A8E
:0607660067C2E6FF12006D
:0A076C0000019D6B9C934EDF12000C
:0807760000019B6B9E6B120059
:06077E0092908080120041
:0A078400D28AD38CD38AD3881200E6
:0C078E000F015B6B5C6B5D6BC26A1200BC
:10079A000201636B220E635D14E2410EE16E020EEA
:1007AA00E26E6351E126D8B0E22AE66A9F0EE16E54
:1007BA00010EE26E6351E126D8B0E22AE66A632BA3
:0607CA00E9D760DF120018
:0807D000F28CF28E9D8A1200EA
:1007D800016A02016351015C1CE28090030E0B6EFA
:1007E800080E0C6E770E0D6E0D2EFED70C2EFCD754
:1007F8000B2EFAD78080030E0B6E080E0C6E770E48
:100808000D6E0D2EFED70C2EFCD70B2EFAD7012A13
:04081800E0D7120013
:06081C00AB98AB8812004E
:080822000201666B43DF1200C6
:10082A000B0E0B6E260E0C6E5D0E0D6E0D2EFED788
:10083A000C2EFCD70B2EFAD700000000AC80800EDD
:10084A000201736FF2DC5D0E0D6E0D2EFED7AC90B9
:10085A000201736BEADC590E0C6E4E0E0D6E0D2EF4
:0A086A00FED70C2EFCD70000120090
:1008740000019B519E1917E09B2B9F0EE96E000E01
:10088400EA6E9B51E926D8B0EA2AEECF66F29B2B9A
:100894009F0EE96E000EEA6E9B51E926D8B0EA2A53
:0808A400EECF67F236DF12000F
:1008AC000900F5CFE6FF0006FBE10106F9E11200B5
:1008BC000001755349E0756B0201636B220E635D99
:1008CC0043E2410EE96E020EEA6E6351E926D8B09E
:1008DC00EA2A9F0ED96E010EDA6E6351D926D8B072
:1008EC00DA2AEE50DE182EE063C269F29F0EE96E32
:1008FC00010EEA6E6351E926D8B0EA2AEECF6AF20D
:10090C00E9DD63C269F2410EE96E020EEA6E020184
:10091C006351E926D8B0EA2AEECF6AF2DBDD9F0EEE
:10092C00E16E010EE26E02016351E126D8B0E22ABB
:10093C00410EE96E020EEA6E6351E926D8B0EA2A3E
:0A094C00EECFE6FF632BBAD71200CE
:040956009484120073
:10095A00B886B06A7F0EAF6EAC84ACDE030E0B6E47
:10096A00080E0C6E770E0D6E0D2EFED70C2EFCD7D0
:08097A000B2EFAD7AC8C120021
:10098200020179AF04D079C27AF245DE03D079C28E
:060992007AF255DE1200AE
:10099800026A7F0E025C0CE2C10EE16E010EE26E8D
:1009A8000250E126D8B0E22AFF0EE66E022AF1D7FD
:1009B800026A220E025C16E202C000F0000E016E0E
:1009C800430E0024D96E000E0120DA6EC10EE16ECE
:1009D800010EE26EDE50E126D8B0E22A02C0E6FF40
:0609E800022AE7D712000D
:1009EE000201636B2E0E635D14E2430E646F000E04
:1009FE00656F63516427D8B0652B6351010F666F25
:100A0E004FDE64C2E1FF65C2E2FF00C0E6FF632B6A
:040A1E00E9D7120002
:100A22006AEC05F0AEDEB2DEA9DE030E0201636FF0
:100A3200D2DECDDEB1DE9EDE98DE8EDF8BDFF0DE33
:100A4200005201E0D3DFA7DFEFDE030E0201636F86
:0C0A5200C2DEE3DE0EDF31DFFDD7FFD790
:100AD40010EE21F0670E006E010E016E5E0EF66ED2
:0E0AE4000A0EF76E000EF86E56EC04F01200CB
:100A5E000000010100000101010101020202828178
:100A6E00101112131415161718191A1B1C1D1E1F00
:020A7E00202135
:100A8000484952514A4B504F4C4D4E5554537E7F1E
:100A90000C0D0E0F101112131415161718191A1B1E
:0E0AA0001C1D0000000000402A542040600091
:010AAE000047
:020AAF00000045
:010AB1000044
:010AB2000043
:030AB300002B66AF
:010AB600003F
:0E0AB700000207060406050400020303020005
:0E0AC500030302020304020203020202020300
:020000040030CA
:0E00000000285F3CFFD381FF0FC00FE00F40D0
:0200000400F00A
:1000000000000000000000000000000000000000F0
:1000100000000000000000000000000000000000E0
:1000200000000000000000000000000000000000D0
:1000300000000000000000000000000000000000C0
:1000400000000000000000000000000000000000B0
:1000500000000000000000000000000000000000A0
:100060000000000000000000000000000000000090
:100070000000000000000000000000000000000080
:100080000000000000000000000000000000000070
:100090000000000000000000000000000000000060
:1000A0000000000000000000000000000000000050
:1000B0000000000000000000000000000000000040
:1000C0000000000000000000000000000000000030
:1000D0000000000000000000000000000000000020
:1000E0000000000000000000000000000000000010
:1000F0000000000000000000000000000000000000
:00000001FF

