:1000000045EF00F00000000000EF00F000000000ED
:0A0010000000000000000000F3D71C
:06001C00929080801200AA
:10002200016A1550015C1CE28090030E0B6E080EF3
:100032000C6E770E0D6E0D2EFED70C2EFCD70B2EEE
:10004200FAD78080030E0B6E080E0C6E770E0D6EC3
:100052000D2EFED70C2EFCD70B2EFAD7012AE1D794
:0200620012008A
:100064000900F5CFE6FF0006FBE10106F9E1120005
:0A007400D28AD38CD38AD3881200FD
:0C007E000F015B6B5C6B5D6BC26A1200D3
:10008A00F4DFF8DFC6DF030E156EC6DF290E0B6E2E
:10009A00960E0C6E7F0E0D6E0D2EFED70C2EFCD713
:0E00AA000B2EFAD7030E156EB7DFF0D7FFD777
:020000040030CA
:0E00000000285F3CFFD381FF0FC00FE00F40D0
:0200000400F00A
:1000000000000000000000000000000000000000F0
:1000100000000000000000000000000000000000E0
:1000200000000000000000000000000000000000D0
:1000300000000000000000000000000000000000C0
:1000400000000000000000000000000000000000B0
:1000500000000000000000000000000000000000A0
:100060000000000000000000000000000000000090
:100070000000000000000000000000000000000080
:100080000000000000000000000000000000000070
:100090000000000000000000000000000000000060
:1000A0000000000000000000000000000000000050
:1000B0000000000000000000000000000000000040
:1000C0000000000000000000000000000000000030
:1000D0000000000000000000000000000000000020
:1000E0000000000000000000000000000000000010
:1000F0000000000000000000000000000000000000
:00000001FF

