:02000000442F8B
:1000080070084001A5007108A4007208A3007B08CD
:10001800A2007C08A1007D08A00080314E018F1E3F
:100028001C28420119084701D7005708D800832621
:1000380040012508F0002408F1002308F2002208F6
:0C004800FB002108FC002008FD0009005E
:0E0054008B1355309F00AA309F009E140800A9
:100062004701E7010B08E60050011E151E139E16FC
:100072004701610850019B004701600850019A0046
:100082001A03F00070089A004701640884006508AA
:1000920085000230E4020030E53B2030670203189D
:1000A20072286708F000F101F035F10D6408F007DD
:1000B2006508F13D0130700784000030713D850014
:1000C200000850019D007008840071088500000836
:1000D2009C002A201A0AF00070089A004701E70AD9
:1000E2004E286708F000F101F035F10D6408F007C1
:1000F2006508F13D0130700784000030713D8500D4
:10010200000850019D0070088400710885000008F5
:100112009C009E122A209E1C8F288C281E114701AB
:0C012200E61B95288B1396288B1708000D
:10012E0047015508F1000330F00071080319A228A9
:0C013E00F035FF3E9D285608F004080034
:10014A00F1014701600871020318C82840010C1226
:10015A000530FB000F30FC00F130FD00FD0BB32829
:10016A00FC0BB328FB0BB3280C160530FB000F3031
:10017A00FC00F130FD00FD0BC028FC0BC028FB0B76
:08018A00C028F10AA6280800B4
:100192000B084701E40050011E134701610850019A
:1001A2009B004701600850019A0014309E042A20E7
:1001B2009E1CDC28D9281E114701E41BE2288B1360
:0601C200E3288B17080082
:1001C8004701550AF0007008F1000130F00071088D
:1001D8000319F128F035FF3EEC28F00970085605A0
:1001E800F2005508F1000130F00071080319FF28EA
:0C01F800F035FF3EFA287208F004080001
:1002040042019E18072900000229470155084201AE
:040214009A00080044
:1002180047015508F1000330F00071080319172948
:0E022800F035FF3E1229F0095608F0050800D7
:100236004701550AF0007008F1000130F00071081E
:1002460003192829F035FF3E232970085604F200C9
:100256005508F1000130F000710803193529F03511
:0C026600FF3E3029F0097208F005080086
:10027200F1012E30710203185429A0308600033098
:100282008700710886070318870AA0308400873028
:100292008500710884070318850A0008F0007008B9
:0802A2008100F10A3A2908006D
:1002AA004701DD0104305D02031878290530F100A9
:1002BA005D08F000710803196529F035FF3E6029D1
:1002CA0080307007E0001F30E1000030E13D00306F
:1002DA00E2000030E23D0030E3000030E33DC92097
:0E02EA004701DD0A57290230E000A520080078
:1002F8004701DD0180305D0203189829C030F30002
:100308002230F4005D08F000F101F035F10D7008BD
:10031800730786007108743D8700FF3081003F3005
:1003280041318100DD0A7E29C030860022308700F5
:1003380001308100003041318100DD012E305D0245
:100348000318CA295D08013EF500F6010030F63DA4
:10035800C030F3002230F4007508F0007608F10090
:10036800F035F10D7008730786007108743D870039
:10037800A0308400033085005D0884070318850ACF
:100388000008810041318101DD0AA229DD01043024
:100398005D020318312A0530F1005D08F00071088C
:1003A8000319D929F035FF3ED4297008DF008030C1
:1003B8007007E0001F30E1000030E13D0030E2004E
:1003C8000030E23D0030E3000030E33DC920470142
:1003D800DE0120305E0203181A2A5E08F000F101DF
:1003E800F035F10D2030700786000430713D87002C
:1003F8005F085E07F500F6010030F63DC030F300F7
:100408002230F4007508F0007608F100F035F10D9F
:100418007008730784007108743D85000008810026
:100428000131000841318100DE0AED2980305F0783
:10043800E0001F30E1000030E13D0030E200003014
:10044800E23D0030E3000030E33D2030E4000430BA
:10045800E50031204701DD0ACB290430E000A52062
:0204680008008A
:10046A004701470854020318482A5208F10001308C
:10047A00F00071080319442AF035FF3E3F2AF009BB
:10048A005308F005542A5208F1000130F0007108AF
:10049A000319522AF035FF3E4D2A5308F00408008A
:1004AA0047014A0854020318602A5208D500530823
:1004BA00D6000C21792A4B08540203186A2A5208DA
:1004CA00D5005308D600E420792A4C0854020318B0
:1004DA00742A5208D5005308D6001B21792A5208DB
:0A04EA00D5005308D6009720080043
:0A04F40047015208D500022108005C
:1004FE0047014808540203188A2A5208D5005308A7
:10050E00D6000C21992A490854020318942A52083D
:10051E00D5005308D600E420992A5208D500530876
:06052E00D6001B210800AD
:10053400F2017F3072020318AD2A7230F0002030CD
:10054400F1007208700786000030713D8700FF30AB
:100554008100F20A9B2AF201223072020318C92A8E
:100564007208F000F101A030700784000330713D7F
:1005740085007230F0002030F1000008700786001A
:100584000030713D870072088100F20AAE2A08002B
:1005940040012608003A031DE92A47015C0840018E
:1005A400A70047015C08013A031DDA2A7C21E82AE6
:1005B40040012708023A031DE22A55213921E82A7D
:1005C40040012708033A031DE82AA60A402B4001EC
:1005D4002608013A031DF82A2708033A031DF62AC0
:1005E40047015C084001A800A60A402B2608023AED
:1005F400031D402B2708033A031D3D2B2E302802F0
:1006040003183D2B2808233A031D1A2B10304701E9
:100614005C020318192BA0308600033087004001C8
:10062400280886070318870A47015C0881003D2BC8
:1006340040012808243A031D312B033047015C0292
:100644000318302BA03086000330870040012808AF
:1006540086070318870A47015C0881003D2BA030F8
:100664008600033087004001280886070318870A9C
:0E06740047015C08810001304001A60008002B
:100682005B2B47014E08D2004F08D3005008D4001C
:100692003522692B4E08D2004F08D3005008D400EF
:1006A2007F22692B4E08D2004F08D3005008D40095
:1006B2005522692B47015108023A0319422B51086E
:1006C200033A03194B2B5108043A0319532BF00137
:0206D20008001E
:1006D40047014F18702B42011E10722B42011E1449
:1006E40040010E197B2B1A30FD00FD0B772B000007
:1006F400722B47014E08D2007A220230FC00583097
:0E070400FD00FD0B832BFC0B832B0000080077
:1007120047015A08F03A031D952B4001A901A60191
:100722006315E315A701BE2B47015A08F73A031DCB
:10073200BC2B4001E31DB92B0930FB001E30FC002D
:10074200E430FD00FD0BA32BFC0BA32BFB0BA32B17
:10075200000002304701E000A52040012708033ACB
:10076200031DB82B470142080319B82B7C219A229A
:0C07720040016311BE2B40016311080020
:10077E0040016319C32BDF2B033029020318D92B39
:10078E002A30840000308500290884070318850A62
:10079E0047015A0800060319D62B4001E311400108
:1007AE00A90ADF2BE31DDF2B47015A08DC00CA2202
:0207BE00080031
:1007C000460160084001E600460161084001E7007B
:1007D000460162084001E800460163084001E90063
:1007E000460164084001EA00460165084001EB004B
:1007F000460166084001EC00460167084001ED0033
:1008000046016808D6006908D7006A08D8006B0856
:10081000D9006C084001DF0046016D084001E0008E
:1008200046016E084001E10046016F084001E20008
:020830000800BE
:1008320042019E1690309D004E018F1E242C4201D3
:080842001908F0001D2C08004C
:10084A002D308400003085004601600884070318B3
:10085A00850A0008E500103060020318882C53301E
:10086A00840003308500650884070318850A000898
:10087A00F0007008E3005030840000308500600802
:10088A0084070318850A00084701CE007008CF00C4
:10089A00460161084701D000CE30840087308500C8
:1008AA004601600884070318850A00084701D10039
:1008BA00412370084601E20063087006F1007108DE
:1008CA00E4007108003A0319872C65084701CE0035
:1008DA000130CF006A23460164084701CE00CF01E8
:1008EA006A23460162084701CE00CF016A235330CA
:1008FA008600033087004601650886070318870AC1
:10090A0062088100992C223060020318992C65082C
:10091A004701CE000130CF006A2346016108470132
:0A092A00CE00CE35CF016A2308008D
:10093400023040016507F100F2010030F23D710818
:100944006E060319BE2CE50A1330F0002130F100C5
:100954006508700786000030713D870047015A081A
:1009640081004001E50A6508700786000030713D8A
:0A097400870047015B0881000800BE
:0E097E0055307D018F00AA308F000F10080049
:10098C00723084002030850046015C08840703180F
:10099C00850A0008F1007108DE002230710203188C
:1009AC00F92CA0308600003087005E0886070318FB
:1009BC00870A5D08810040010E1DF62C46015E0879
:1009CC00E0005D08E1002524A1308600013087009D
:1009DC0046015E0886070318870A5D088100F92C1A
:0809EC0001304001CF000800BA
:1009F400F1010330710203180A2D533086000330CD
:100A04008700710886070318870A8101F10AFB2C05
:020A14000800D8
:100A1600FF304601E000FF30E1000030E200003028
:100A2600E3007A30E4000230E500D230E60003301D
:100A3600E700FF30E800FF30E9000030EA00003050
:100A4600EB00FF30EC00FF30ED000030EE00003030
:080A5600EF00E0231924080061
:100A5E0050011E1346015D0850019B0046015C08C3
:100A6E0050019A001E141D08F100F0011C08F0043C
:060A7E000030F104080045
:080A840040016311E3110800B9
:0E0A8C0055307D018F00AA308F000F14080036
:100A9A004001E31C752D6408013A031D5B2D4701D3
:100AAA0059084001DE000230E400742D6408023A5D
:100ABA00031D742D72308400203085005E0884077F
:100ACA000318850A223000020318712D5E084701B7
:100ADA00DA005908DB009A2401304001E400792D3C
:0A0AEA0047015908DA00BF23080095
:100AF400B03047014304F10059087106031D872DE6
:100B04004001E3140130E4008D2D4001E31047015E
:080B14005908DA0089230800EA
:100B1C0040014F080319E92DCF01EF0122306F027C
:100B2C000318E92DA0308400003085006F0884077D
:100B3C000318850A0008F100A130840001308500FB
:100B4C006F0884070318850A710800060319E72D3E
:100B5C000E1DE52D6F084601E000A1308400013028
:100B6C00850040016F0884070318850A00084601B8
:100B7C00E100252440016F084601E000A03084000C
:100B8C000030850040016F0884070318850A0008AF
:100B9C004601E1002524A130860001308700400188
:100BAC006F0886070318870AA03084000030850080
:100BBC006F0884070318850A00088100E72D0130AF
:080BCC00CF00EF0A942D080090
:100BD40080304601DC001F30DD000030DE000030D4
:100BE400DF002F2571083F3A031DFA2DFF307006F0
:0E0BF400013003190030F2007208F000080012
:100C020040016E0865060319202EEE0A1330F0002B
:100C12002130F1006E08700784000030713D8500BC
:100C220000084601DC004001EE0A6E0870078400ED
:100C32000030713D850000084601DD00C624080031
:100C420012001E00F003031D212EF103031D212EAD
:020C5200080098
:100C54001530FB004B30FC00BE30FD00FD0B302E88
:100C6400FC0B302EFB0B302E000080304701CE00F1
:100C74000130CF006A23BA30FD00FD0B3F2E000087
:100C84004701CE01CF016A23B130FC009E30FD0044
:0C0C9400FD0B4A2EFC0B4A2E000008004D
:100CA000F2017F3072020318632E7230F0002030A0
:100CB000F1007208700786000030713D8700FF3038
:100CC0008100F20A512EF2012230720203187F2EA7
:100CD0007208F000F101A030700784000330713D0C
:100CE00085007230F0002030F100000870078600A7
:100CF0000030713D870072088100F20A642E0800FE
:060D00004001141508007B
:100D06004701D81F8D2E4001631447015808D900AA
:100D16007A25942E4001631C942E47015808D90069
:040D26004D2508004F
:100D2A004001EF012E306F020318C82EA030460191
:100D3A00DA000330DB0040016F084601DA070318C6
:100D4A00DB0A803040016F074601DC001F30DD00FE
:100D5A000030DD3D0030DE000030DE3D0030DF00D7
:100D6A000030DF3D0130DC070030DD3DDE3DDF3D98
:100D7A002F2546015A0886005B0887007008810003
:080D8A004001EF0A972E08005A
:0C0D920042011D121D169D139D17080044
:100D9E00F10140016F0871020318F12E0C1205309B
:100DAE00FB000F30FC00F130FD00FD0BDC2EFC0BC8
:100DBE00DC2EFB0BDC2E0C160530FB000F30FC007E
:100DCE00F130FD00FD0BE92EFC0BE92EFB0BE92E9D
:060DDE00F10AD02E08000E
:080DE4004001EE01E5010800E9
:080DEC00400112120C16080070
:0C0DF4004001E401E310631042250800F8
:0C0E00007E01B801CE0141019D010800F7
:100E0C00BF2415307E01A5000F30A40046254201F9
:100E1C009F15FF309B009C011E150B250530FB0018
:100E2C000F30FC00F130FD00FD0B1A2FFC0B1A2FBC
:0A0E3C00FB0B1A2F42011E170800DD
:100E46004001EF0122306F0203183D2FA0308600CB
:100E5600003087006F0886070318870A8101A130D2
:100E66008600013087006F0886070318870A81010C
:080E7600EF0A252FFA24080001
:0A0E7E000B178B174E0199160800A0
:100E8800DC270027F6260330EF00CF262327F2269B
:100E9800FA26062780263921EA2570080319552FD6
:100EA800952650262A2603304001EF00CF26C92672
:100EB8003F2701268E2542019D1C632FC9265D2FE1
:020EC800642F95
:100FB80068308400873085003830F0000130F10057
:0C0FC8002630860000308700212608003B
:020ED0000034EC
:020ED2000034EA
:020ED4000034E8
:020ED6000034E6
:060ED80000342B346634E7
:100EDE000034003401340134003400340134013460
:100EEE000134013401340234023402348234813448
:100EFE0010341134123413341434153416341734A8
:100F0E00183419341A341B341C341D341E341F3457
:040F1E002034213426
:020F2200003499
:100F240000340234073406340434063405340434FB
:0C0F34000034023403340334023400346F
:100F400048344934523451344A344B3450344F3499
:100F50004C344D344E345534543453347E347F3411
:100F60000C340D340E340F34103411341234133465
:100F70001434153416341734183419341A341B3415
:100F80001C341D3400340034003400340034403448
:0C0F90002A3454342034403460340034DF
:100F9C000334033402340234033404340234023490
:0C0FAC00033402340234023402340334F3
:020000040001F9
:0A000E000709C3361F3F8F0B0100E6
:020000040001F9
:0200000400F00A
:1000000000000000000000000000000000000000F0
:1000100000000000000000000000000000000000E0
:1000200000000000000000000000000000000000D0
:1000300000000000000000000000000000000000C0
:1000400000000000000000000000000000000000B0
:1000500000000000000000000000000000000000A0
:100060000000000000000000000000000000000090
:100070000000000000000000000000000000000080
:100080000000000000000000000000000000000070
:100090000000000000000000000000000000000060
:1000A0000000000000000000000000000000000050
:1000B0000000000000000000000000000000000040
:1000C0000000000000000000000000000000000030
:1000D0000000000000000000000000000000000020
:1000E0000000000000000000000000000000000010
:1000F0000000000000000000000000000000000000
:00000001FF

