:02000000752F5A
:1000080070084001A6007108A5007208A4007308D2
:10001800A3007B08A2007C08A1007D08A000803115
:100028004E018F1E1E28420119084701E000600892
:10003800E100B92640012608F0002508F10024084F
:10004800F2002308F3002208FB002108FC00200826
:04005800FD0009009E
:0E005C008B1355309F00AA309F009E140800A1
:10006A004A01E0010B084701EF0050011E151E135B
:10007A009E1647016A0850019B0047016908500112
:10008A009A001A03F00070089A0047016D0884006C
:10009A006E0885000230ED020030EE3B20304A0146
:1000AA006002031879286008F000F101F035F10DBB
:1000BA0047016D08F0076E08F13D013070078400B2
:1000CA000030713D8500000850019D0070088400D1
:1000DA007108850000089C002E201A0AF00070089A
:1000EA009A004A01E00A53286008F000F101F0354D
:1000FA00F10D47016D08F0076E08F13D01307007F8
:10010A0084000030713D8500000850019D00700890
:10011A0084007108850000089C009E122E209E1CF7
:10012A00972894281E114701EF1B9D288B139E28A0
:04013A008B17080017
:10013E0047015E08F1000330F00071080319AA2888
:0C014E00F035FF3EA5285F08F004080013
:10015A00F1014701690871020318D02840010C1205
:10016A000530FB000F30FC00F130FD00FD0BBB2811
:10017A00FC0BBB28FB0BBB280C160530FB000F3011
:10018A00FC00F130FD00FD0BC828FC0BC828FB0B56
:08019A00C828F10AAE28080094
:1001A2000B084701ED0050011E1347016A08500178
:1001B2009B004701690850019A0014309E042E20CA
:1001C2009E1CE428E1281E114701ED1BEA288B132F
:0601D200EB288B1708006A
:1001D80047015E0AF0007008F1000130F000710874
:1001E8000319F928F035FF3EF428F00970085F0577
:1001F800F2005E08F1000130F000710803190729C8
:0C020800F035FF3E02297208F0040800E7
:1002140042019E180F2900000A2946016F08420175
:040224009A00080034
:1002280047015E08F1000330F000710803191F2927
:0E023800F035FF3E1A29F0095F08F0050800B6
:1002460047015E0AF0007008F1000130F000710805
:1002560003193029F035FF3E2B2970085F04F200A0
:100266005E08F1000130F000710803193D29F035F0
:0C027600FF3E3829F0097208F00508006E
:10028200F1012E30710203185C29A0308600033080
:100292008700710886070318870AD23084008730E6
:1002A2008500710884070318850A0008F0007008A9
:0802B2008100F10A4229080055
:1002BA004701E60104306602031880290530F1007F
:1002CA006608F000710803196D29F035FF3E6829A8
:1002DA0080307007E9001F30EA000030EA3D003044
:1002EA00EB000030EB3D0030EC000030EC3DD1205B
:0E02FA004701E60A5F290230E900AD20080046
:100308004701E601803066020318A029C030F300D7
:100318002230F4006608F000F101F035F10D7008A4
:10032800730786007108743D8700FF3081003F30F5
:1003380041318100E60A8629C030860022308700D4
:1003480001308100003041318100E6012E30660223
:100358000318D2296608013EF500F6010030F63D83
:10036800C030F3002230F4007508F0007608F10080
:10037800F035F10D7008730786007108743D870029
:10038800A030840003308500660884070318850AB6
:100398000008810041318101E60AAA29E6010430FA
:1003A80066020318392A0530F1006608F000710862
:1003B8000319E129F035FF3EDC297008E800803098
:1003C8007007E9001F30EA000030EA3D0030EB001A
:1003D8000030EB3D0030EC000030EC3DD12047010F
:1003E800E701203067020318222A6708F000F101AC
:1003F800F035F10D2030700786000430713D87001C
:1004080068086707F500F6010030F63DC030F300D4
:100418002230F4007508F0007608F100F035F10D8F
:100428007008730784007108743D85000008810016
:100438000131000841318100E70AF5298030680759
:10044800E9001F30EA000030EA3D0030EB000030E0
:10045800EB3D0030EC000030EC3D2030ED00043086
:10046800EE0035204701E60AD3290430E900AD2023
:0204780008007A
:10047A004701470846016E020318512A6C08F10029
:10048A000130F000710803194D2AF035FF3E482A61
:10049A00F0096D08F0055D2A6C08F1000130F000E2
:1004AA00710803195B2AF035FF3E562A6D08F004DD
:0204BA00080038
:1004BC0047014A0846016E0203186D2A6C08470171
:1004CC00DE0046016D084701DF001421942A470124
:1004DC004B0846016E0203187C2A6C084701DE00AB
:1004EC0046016D084701DF00EC20942A47014C08B7
:1004FC0046016E0203188B2A6C084701DE00460188
:10050C006D084701DF002321942A46016C0847013E
:0E051C00DE0046016D084701DF009F20080049
:0A052A0046016C08EF000A210800EA
:100534004701480846016E020318A92A6C084701BE
:10054400DE0046016D084701DF001421C12A47017E
:10055400490846016E020318B82A6C084701DE00F8
:1005640046016D084701DF00EC20C12A46016C08F2
:100574004701DE0046016D084701DF002321080022
:10058400F201803072020318D52A7230F000203054
:10059400F1007208700786000030713D8700FF305B
:1005A4008100F20AC32AF201223072020318F92AE6
:1005B4007208F000F101A030700784000330713D2F
:1005C40085000008F1007108F300803071020318FF
:1005D400F72A7230F0002030F100730870078600AB
:1005E4000030713D870072088100F20AD62A0800A3
:1005F40040012708003A031D192B470165084001F3
:10060400A80047016508013A031D0A2B8421182B11
:1006140040012808023A031D122B5D214121182BA9
:1006240040012808033A031D182BA70A702B400128
:100634002708013A031D282B2808033A031D262BFB
:10064400470165084001A900A70A702B2708023A50
:10065400031D702B2808033A031D6D2B2E3029022D
:1006640003186D2B2908233A031D4A2B1030470128
:1006740065020318492BA03086000330870040012F
:10068400290886070318870A4701650881006D2B2E
:1006940040012908243A031D612B033047016502F8
:1006A4000318602BA030860003308700400129081E
:1006B40086070318870A4701650881006D2BA0305F
:1006C4008600033087004001290886070318870A3B
:0E06D40047016508810001304001A7000800C1
:1006E2008C2B46016808EC006908ED006A08EE00F0
:1006F2003D229A2B6808EC006908ED006A08EE00BA
:100702009A229A2B46016808EC006908ED006A08F3
:10071200EE005E229A2B46016B08023A0319722BF5
:100722006B08033A03197B2B6B08043A0319832BDA
:04073200F0010800CA
:1007360046016918A12B42011E10A32B42011E146B
:1007460040010E19AC2B1A30FD00FD0BA82B000042
:10075600A32B46016808EC0095220230FC005830B5
:0E076600FD00FD0BB42BFC0BB42B00000800B3
:1007740047016308F03A031DC62B4001AA01A701F3
:100784006415E415A801EF2B47016308F73A031D2C
:10079400ED2B4001E41DEA2B0930FB001E30FC0068
:1007A400E430FD00FD0BD42BFC0BD42BFB0BD42B22
:1007B400000002304701E900AD2040012808033A57
:1007C400031DE92B470142080319E92B8421C222A6
:0C07D40040016411EF2B4001641108008B
:1007E00040016419F42B102C03302A0203180A2C40
:1007F0002B308400003085002A0884070318850AFE
:100800004701630800060319072C4001E411400169
:10081000AA0A102CE41D102C47016308E500FA22F7
:020820000800CE
:1008220047014E084001E70047014F084001E80038
:10083200470150084001E900470151084001EA0020
:10084200470152084001EB00470153084001EC0008
:10085200470154084001ED00470155084001EE00F0
:10086200470156084601D700470157084601D800FC
:10087200470158084601D900470159084601DA00E4
:1008820047015A084001E00047015B084001E100CE
:1008920047015C084001E20047015D084001E300B6
:0208A20008004C
:1008A40042019E1690309D004E018F1E5D2C420128
:0808B4001908F000562C0800A1
:1008BC002E3084000030850046016208840703183E
:1008CC00850A0008E700103062020318B92C543076
:1008DC00840003308500670884070318850A000824
:1008EC00F0007008E500513084000030850062088B
:1008FC0084070318850A0008E8007008E9006308FB
:10090C00EA000030840088308500620884070318F0
:10091C00850A0008EB00712370084601E4006508A5
:10092C007006F1007108E6007108003A0319B82C42
:10093C006708E8000130E9009B2346016608E800DF
:10094C00E9019B2346016408E800E9019B2354302C
:10095C008600033087004601670886070318870A5C
:10096C0064088100C82C223062020318C82C670866
:10097C00E8000130E9009B2346016308E800E835F4
:06098C00E9019B230800B5
:10099200023040016607F100F2010030F23D7108B9
:1009A2006F060319ED2CE60A1430F0002130F10035
:1009B2006608700786000030713D870047016308B2
:1009C20081004001E60A6608700786000030713D2A
:0A09D2008700470164088100080057
:0E09DC0055307D018F00AA308F000F100800EB
:1009EA00723084002030850046015E0884070318AF
:1009FA00850A0008F1007108E0002230710203182C
:100A0A00282DA0308600003087006008860703186A
:100A1A00870A5F08810040010E1D252D46016008E6
:100A2A00E2005F08E3005E24A230860001308700FE
:100A3A004601600886070318870A5F088100282D87
:080A4A0001304001D00008005A
:100A5200F101033071020318392D5430860003303E
:100A62008700710886070318870A8101F10A2A2D77
:020A720008007A
:100A7400FF304701CE00FF30CF000030D0000030FF
:100A8400D1009530D2000230D3006C30D400033052
:100A9400D500FF30D600FF30D7000030D80000303A
:100AA400D900FF30DA00FF30DB000030DC0000301A
:080AB400DD00112452240800AA
:100ABC0050011E1346015F0850019B0046015E0861
:100ACC0050019A001E141D08F100F0011C08F004DE
:060ADC000030F1040800E7
:080AE20040016411E411080059
:0E0AEA0055307D018F00AA308F000F140800D8
:100AF8004001E41CA42D6508013A031D8A2D470115
:100B080062084001DF000230E500A32D6508023AC3
:100B1800031DA32D72308400203085005F088407F0
:100B28000318850A223000020318A02D5F08470128
:100B3800E3006208E400C92401304001E500A82D63
:0A0B480047016208E300F0230800F3
:100B5200B03047014304F10062087106031DB62D4F
:100B62004001E4140130E500BC2D4001E4104701CE
:080B72006208E300BA23080049
:100B7A00400150080319172ED0014601DB0122302B
:100B8A005B020318172EA0308400003085005B0832
:100B9A0084070318850A0008F100A2308400013096
:100BAA0085005B0884070318850A71080006031983
:100BBA00142E40010E1D112E46015B08E200A230E0
:100BCA008400013085005B0884070318850A000841
:100BDA00E3005E2446015B08E200A0308400003096
:100BEA0085005B0884070318850A0008E3005E2471
:100BFA00A23086000130870046015B088607031889
:100C0A00870AA0308400003085005B088407031837
:100C1A00850A00088100142E01304001D0004601E7
:060C2A00DB0AC42D0800E6
:100C300080304601DE001F30DF000030E000003071
:100C4000E1005E2571083F3A031D282EFF30700633
:0E0C5000013003190030F2007208F0000800B5
:100C5E0040016F08660603194E2EEF0A1430F0009D
:100C6E002130F1006F08700784000030713D85005F
:100C7E0000084601DE004001EF0A6F08700784008D
:100C8E000030713D850000084601DF00F5240800A4
:100C9E0012001E00F003031D4F2EF103031D4F2EF5
:020CAE0008003C
:100CB0001530FB004B30FC00BE30FD00FD0B5E2EFE
:100CC000FC0B5E2EFB0B5E2E000080304601E80020
:100CD0000130E9009B23BA30FD00FD0B6D2E0000B2
:100CE0004601E801E9019B23B130FC009E30FD0084
:0C0CF000FD0B782EFC0B782E0000080095
:100CFC00F201803072020318912E7230F000203015
:100D0C00F1007208700786000030713D8700FF30DB
:100D1C008100F20A7F2EF201223072020318B52EE6
:100D2C007208F000F101A030700784000330713DAF
:100D3C0085000008F1007108F3008030710203187F
:100D4C00B32E7230F0002030F1007308700786006B
:100D5C000030713D870072088100F20A922E080063
:060D6C004001141508000F
:100D72004701E11FC32E4001641447016108E200EC
:100D8200A925CA2E4001641CCA2E47016108E2004F
:040D92007C250800B4
:100D96004601DB012E305B020318F82EA030DC0082
:100DA6000330DD005B08DC070318DD0A80305B07D3
:100DB600DE001F30DF000030DF3D0030E000003095
:100DC600E03D0030E1000030E13D0130DE0700305B
:100DD600DF3DE03DE13D5E2546015C0886005D089D
:0C0DE600870070088100DB0ACD2E080099
:0C0DF20042011D121D169D139D170800E4
:100DFE00F10146015B0871020318222F40010C120B
:100E0E000530FB000F30FC00F130FD00FD0B0D2F07
:100E1E00FC0B0D2FFB0B0D2F0C160530FB000F30AE
:100E2E00FC00F130FD00FD0B1A2FFC0B1A2FFB0BF3
:080E3E001A2FF10A002F080031
:080E46004001EF01E601080084
:080E4E00400112120C1608000D
:0C0E56004001E501E41064107125080063
:0C0E62007E01B801CE0141019D01080095
:100E6E00EE2415307E01A5000F30A4007525420139
:100E7E009F15FF309B009C011E153A250530FB0087
:100E8E000F30FC00F130FD00FD0B4B2FFC0B4B2FF8
:0A0E9E00FB0B4B2F42011E1708004A
:100EA8004601DB0122305B0203186E2FA03086005A
:100EB800003087005B0886070318870A8101A23083
:100EC8008600013087005B0886070318870A8101BE
:080ED800DB0A562F2925080052
:0A0EE0000B178B174E01991608003E
:100EEA0088310E2080313127272703304601DB0065
:100EFA00FF26542723272B273727B62641211826D2
:100F0A0070080319892FCB267E26582603304601FE
:100F1A00DB00FF26F92670272F26BD2542019D1CDE
:080F2A00972FF926912F982F53
:10101C009A308400873085003830F0000130F100C0
:10102C00273086000030870080314F268831080039
:020F3400003487
:020F3600003485
:020F3800003483
:020F3A00003481
:060F3C0000342B34663482
:100F420000340034013401340034003401340134FB
:100F520001340134013402340234023482348134E3
:100F62001034113412341334143415341634173443
:100F7200183419341A341B341C341D341E341F34F3
:040F820020342134C2
:020F8600003435
:100F88000034023407340634043406340534043497
:0C0F98000034023403340334023400340B
:100FA40048344934523451344A344B3450344F3435
:100FB4004C344D344E345534543453347E347F34AD
:100FC4000C340D340E340F34103411341234133401
:100FD4001434153416341734183419341A341B34B1
:100FE4001C341D34003400340034003400344034E4
:0C0FF4002A34543420344034603400347B
:10100000033403340234023403340434023402342B
:0C1010000334023402340234023403348E
:020000040001F9
:0A000E000709C3361F3F8F0B0100E6
:020000040001F9
:0200000400F00A
:1000000000000000000000000000000000000000F0
:1000100000000000000000000000000000000000E0
:1000200000000000000000000000000000000000D0
:1000300000000000000000000000000000000000C0
:1000400000000000000000000000000000000000B0
:1000500000000000000000000000000000000000A0
:100060000000000000000000000000000000000090
:100070000000000000000000000000000000000080
:100080000000000000000000000000000000000070
:100090000000000000000000000000000000000060
:1000A0000000000000000000000000000000000050
:1000B0000000000000000000000000000000000040
:1000C0000000000000000000000000000000000030
:1000D0000000000000000000000000000000000020
:1000E0000000000000000000000000000000000010
:1000F0000000000000000000000000000000000000
:00000001FF

